{
  "address": "0x09B8e17f94B8b628B8a570547A92816aB9F854b0",
  "abi": [
    {
      "inputs": [
        {
          "internalType": "address",
          "name": "priceFeedAddress",
          "type": "address"
        },
        {
          "internalType": "string",
          "name": "lowSvg",
          "type": "string"
        },
        {
          "internalType": "string",
          "name": "hihgSvg",
          "type": "string"
        }
      ],
      "stateMutability": "nonpayable",
      "type": "constructor"
    },
    {
      "inputs": [],
      "name": "URI_QueryFor_NonExistentToken",
      "type": "error"
    },
    {
      "anonymous": false,
      "inputs": [
        {
          "indexed": true,
          "internalType": "address",
          "name": "owner",
          "type": "address"
        },
        {
          "indexed": true,
          "internalType": "address",
          "name": "approved",
          "type": "address"
        },
        {
          "indexed": true,
          "internalType": "uint256",
          "name": "tokenId",
          "type": "uint256"
        }
      ],
      "name": "Approval",
      "type": "event"
    },
    {
      "anonymous": false,
      "inputs": [
        {
          "indexed": true,
          "internalType": "address",
          "name": "owner",
          "type": "address"
        },
        {
          "indexed": true,
          "internalType": "address",
          "name": "operator",
          "type": "address"
        },
        {
          "indexed": false,
          "internalType": "bool",
          "name": "approved",
          "type": "bool"
        }
      ],
      "name": "ApprovalForAll",
      "type": "event"
    },
    {
      "anonymous": false,
      "inputs": [
        {
          "indexed": true,
          "internalType": "uint256",
          "name": "tokenId",
          "type": "uint256"
        },
        {
          "indexed": false,
          "internalType": "int256",
          "name": "HighValue",
          "type": "int256"
        }
      ],
      "name": "NFTCreated__DynamicSvg",
      "type": "event"
    },
    {
      "anonymous": false,
      "inputs": [
        {
          "indexed": true,
          "internalType": "address",
          "name": "previousOwner",
          "type": "address"
        },
        {
          "indexed": true,
          "internalType": "address",
          "name": "newOwner",
          "type": "address"
        }
      ],
      "name": "OwnershipTransferred",
      "type": "event"
    },
    {
      "anonymous": false,
      "inputs": [
        {
          "indexed": true,
          "internalType": "address",
          "name": "from",
          "type": "address"
        },
        {
          "indexed": true,
          "internalType": "address",
          "name": "to",
          "type": "address"
        },
        {
          "indexed": true,
          "internalType": "uint256",
          "name": "tokenId",
          "type": "uint256"
        }
      ],
      "name": "Transfer",
      "type": "event"
    },
    {
      "inputs": [
        {
          "internalType": "address",
          "name": "to",
          "type": "address"
        },
        {
          "internalType": "uint256",
          "name": "tokenId",
          "type": "uint256"
        }
      ],
      "name": "approve",
      "outputs": [],
      "stateMutability": "nonpayable",
      "type": "function"
    },
    {
      "inputs": [
        {
          "internalType": "address",
          "name": "owner",
          "type": "address"
        }
      ],
      "name": "balanceOf",
      "outputs": [
        {
          "internalType": "uint256",
          "name": "",
          "type": "uint256"
        }
      ],
      "stateMutability": "view",
      "type": "function"
    },
    {
      "inputs": [
        {
          "internalType": "uint256",
          "name": "tokenId",
          "type": "uint256"
        }
      ],
      "name": "getApproved",
      "outputs": [
        {
          "internalType": "address",
          "name": "",
          "type": "address"
        }
      ],
      "stateMutability": "view",
      "type": "function"
    },
    {
      "inputs": [],
      "name": "getHighSvg",
      "outputs": [
        {
          "internalType": "string",
          "name": "",
          "type": "string"
        }
      ],
      "stateMutability": "view",
      "type": "function"
    },
    {
      "inputs": [],
      "name": "getLowSvg",
      "outputs": [
        {
          "internalType": "string",
          "name": "",
          "type": "string"
        }
      ],
      "stateMutability": "view",
      "type": "function"
    },
    {
      "inputs": [],
      "name": "getPriceFeed",
      "outputs": [
        {
          "internalType": "contract AggregatorV3Interface",
          "name": "",
          "type": "address"
        }
      ],
      "stateMutability": "view",
      "type": "function"
    },
    {
      "inputs": [],
      "name": "getTokenCounter",
      "outputs": [
        {
          "internalType": "uint256",
          "name": "",
          "type": "uint256"
        }
      ],
      "stateMutability": "view",
      "type": "function"
    },
    {
      "inputs": [
        {
          "internalType": "address",
          "name": "owner",
          "type": "address"
        },
        {
          "internalType": "address",
          "name": "operator",
          "type": "address"
        }
      ],
      "name": "isApprovedForAll",
      "outputs": [
        {
          "internalType": "bool",
          "name": "",
          "type": "bool"
        }
      ],
      "stateMutability": "view",
      "type": "function"
    },
    {
      "inputs": [
        {
          "internalType": "int256",
          "name": "HighValue",
          "type": "int256"
        }
      ],
      "name": "mintNft",
      "outputs": [],
      "stateMutability": "nonpayable",
      "type": "function"
    },
    {
      "inputs": [],
      "name": "name",
      "outputs": [
        {
          "internalType": "string",
          "name": "",
          "type": "string"
        }
      ],
      "stateMutability": "view",
      "type": "function"
    },
    {
      "inputs": [],
      "name": "owner",
      "outputs": [
        {
          "internalType": "address",
          "name": "",
          "type": "address"
        }
      ],
      "stateMutability": "view",
      "type": "function"
    },
    {
      "inputs": [
        {
          "internalType": "uint256",
          "name": "tokenId",
          "type": "uint256"
        }
      ],
      "name": "ownerOf",
      "outputs": [
        {
          "internalType": "address",
          "name": "",
          "type": "address"
        }
      ],
      "stateMutability": "view",
      "type": "function"
    },
    {
      "inputs": [],
      "name": "renounceOwnership",
      "outputs": [],
      "stateMutability": "nonpayable",
      "type": "function"
    },
    {
      "inputs": [
        {
          "internalType": "uint256",
          "name": "",
          "type": "uint256"
        }
      ],
      "name": "s_tokenIdToHighValue",
      "outputs": [
        {
          "internalType": "int256",
          "name": "",
          "type": "int256"
        }
      ],
      "stateMutability": "view",
      "type": "function"
    },
    {
      "inputs": [
        {
          "internalType": "address",
          "name": "from",
          "type": "address"
        },
        {
          "internalType": "address",
          "name": "to",
          "type": "address"
        },
        {
          "internalType": "uint256",
          "name": "tokenId",
          "type": "uint256"
        }
      ],
      "name": "safeTransferFrom",
      "outputs": [],
      "stateMutability": "nonpayable",
      "type": "function"
    },
    {
      "inputs": [
        {
          "internalType": "address",
          "name": "from",
          "type": "address"
        },
        {
          "internalType": "address",
          "name": "to",
          "type": "address"
        },
        {
          "internalType": "uint256",
          "name": "tokenId",
          "type": "uint256"
        },
        {
          "internalType": "bytes",
          "name": "data",
          "type": "bytes"
        }
      ],
      "name": "safeTransferFrom",
      "outputs": [],
      "stateMutability": "nonpayable",
      "type": "function"
    },
    {
      "inputs": [
        {
          "internalType": "address",
          "name": "operator",
          "type": "address"
        },
        {
          "internalType": "bool",
          "name": "approved",
          "type": "bool"
        }
      ],
      "name": "setApprovalForAll",
      "outputs": [],
      "stateMutability": "nonpayable",
      "type": "function"
    },
    {
      "inputs": [
        {
          "internalType": "bytes4",
          "name": "interfaceId",
          "type": "bytes4"
        }
      ],
      "name": "supportsInterface",
      "outputs": [
        {
          "internalType": "bool",
          "name": "",
          "type": "bool"
        }
      ],
      "stateMutability": "view",
      "type": "function"
    },
    {
      "inputs": [
        {
          "internalType": "string",
          "name": "svg",
          "type": "string"
        }
      ],
      "name": "svgToImageURI",
      "outputs": [
        {
          "internalType": "string",
          "name": "",
          "type": "string"
        }
      ],
      "stateMutability": "pure",
      "type": "function"
    },
    {
      "inputs": [],
      "name": "symbol",
      "outputs": [
        {
          "internalType": "string",
          "name": "",
          "type": "string"
        }
      ],
      "stateMutability": "view",
      "type": "function"
    },
    {
      "inputs": [
        {
          "internalType": "uint256",
          "name": "tokenId",
          "type": "uint256"
        }
      ],
      "name": "tokenURI",
      "outputs": [
        {
          "internalType": "string",
          "name": "",
          "type": "string"
        }
      ],
      "stateMutability": "view",
      "type": "function"
    },
    {
      "inputs": [
        {
          "internalType": "address",
          "name": "from",
          "type": "address"
        },
        {
          "internalType": "address",
          "name": "to",
          "type": "address"
        },
        {
          "internalType": "uint256",
          "name": "tokenId",
          "type": "uint256"
        }
      ],
      "name": "transferFrom",
      "outputs": [],
      "stateMutability": "nonpayable",
      "type": "function"
    },
    {
      "inputs": [
        {
          "internalType": "address",
          "name": "newOwner",
          "type": "address"
        }
      ],
      "name": "transferOwnership",
      "outputs": [],
      "stateMutability": "nonpayable",
      "type": "function"
    }
  ],
  "transactionHash": "0x19ffd7dfc76a2dac454809a8bdaebdfd697f8e4ff30891b92ebdd80f4bf7a275",
  "args": [
    "0xD4a33860578De61DBAbDc8BFdb98FD742fA7028e",
    "<?xml version=\"1.0\" standalone=\"no\"?>\n<svg width=\"1024px\" height=\"1024px\" viewBox=\"0 0 1024 1024\" xmlns=\"http://www.w3.org/2000/svg\">\n  <path fill=\"#333\" d=\"M512 64C264.6 64 64 264.6 64 512s200.6 448 448 448 448-200.6 448-448S759.4 64 512 64zm0 820c-205.4 0-372-166.6-372-372s166.6-372 372-372 372 166.6 372 372-166.6 372-372 372z\"/>\n  <path fill=\"#E6E6E6\" d=\"M512 140c-205.4 0-372 166.6-372 372s166.6 372 372 372 372-166.6 372-372-166.6-372-372-372zM288 421a48.01 48.01 0 0 1 96 0 48.01 48.01 0 0 1-96 0zm376 272h-48.1c-4.2 0-7.8-3.2-8.1-7.4C604 636.1 562.5 597 512 597s-92.1 39.1-95.8 88.6c-.3 4.2-3.9 7.4-8.1 7.4H360a8 8 0 0 1-8-8.4c4.4-84.3 74.5-151.6 160-151.6s155.6 67.3 160 151.6a8 8 0 0 1-8 8.4zm24-224a48.01 48.01 0 0 1 0-96 48.01 48.01 0 0 1 0 96z\"/>\n  <path fill=\"#333\" d=\"M288 421a48 48 0 1 0 96 0 48 48 0 1 0-96 0zm224 112c-85.5 0-155.6 67.3-160 151.6a8 8 0 0 0 8 8.4h48.1c4.2 0 7.8-3.2 8.1-7.4 3.7-49.5 45.3-88.6 95.8-88.6s92 39.1 95.8 88.6c.3 4.2 3.9 7.4 8.1 7.4H664a8 8 0 0 0 8-8.4C667.6 600.3 597.5 533 512 533zm128-112a48 48 0 1 0 96 0 48 48 0 1 0-96 0z\"/>\n</svg>\n",
    "<svg viewBox=\"0 0 200 200\" width=\"400\"  height=\"400\" xmlns=\"http://www.w3.org/2000/svg\">\n  <circle cx=\"100\" cy=\"100\" fill=\"yellow\" r=\"78\" stroke=\"black\" stroke-width=\"3\"/>\n  <g class=\"eyes\">\n    <circle cx=\"61\" cy=\"82\" r=\"12\"/>\n    <circle cx=\"127\" cy=\"82\" r=\"12\"/>\n  </g>\n  <path d=\"m136.81 116.53c.69 26.17-64.11 42-81.52-.73\" style=\"fill:none; stroke: black; stroke-width: 3;\"/>\n</svg>"
  ],
  "numDeployments": 1,
  "solcInputHash": "52e423b21890d5e602af658b0dd791e4",
  "bytecode": "0x60a06040523480156200001157600080fd5b5060405162003dea38038062003dea83398181016040528101906200003791906200073a565b6040518060400160405280600f81526020017f44796e616d696320535647204e465400000000000000000000000000000000008152506040518060400160405280600381526020017f44534e00000000000000000000000000000000000000000000000000000000008152508160009080519060200190620000bb92919062000488565b508060019080519060200190620000d492919062000488565b505050620000f7620000eb6200018e60201b60201c565b6200019660201b60201c565b600060078190555062000110826200025c60201b60201c565b600890805190602001906200012792919062000488565b5062000139816200025c60201b60201c565b600990805190602001906200015092919062000488565b508273ffffffffffffffffffffffffffffffffffffffff1660808173ffffffffffffffffffffffffffffffffffffffff168152505050505062000a25565b600033905090565b6000600660009054906101000a900473ffffffffffffffffffffffffffffffffffffffff16905081600660006101000a81548173ffffffffffffffffffffffffffffffffffffffff021916908373ffffffffffffffffffffffffffffffffffffffff1602179055508173ffffffffffffffffffffffffffffffffffffffff168173ffffffffffffffffffffffffffffffffffffffff167f8be0079c531659141344cd1fd0a4f28419497f9722a3daafe3b4186f6b6457e060405160405180910390a35050565b60606000620002978360405160200162000277919062000821565b604051602081830303815290604052620002fa60201b620010841760201c565b90506040518060400160405280601a81526020017f646174613a696d6167652f7376672b786d6c3b6261736536342c00000000000081525081604051602001620002e39291906200083a565b604051602081830303815290604052915050919050565b60606000825114156200031f5760405180602001604052806000815250905062000483565b600060405180606001604052806040815260200162003daa60409139905060006003600285516200035191906200089b565b6200035d919062000927565b60046200036b91906200095f565b905060006020826200037e91906200089b565b67ffffffffffffffff8111156200039a5762000399620005cc565b5b6040519080825280601f01601f191660200182016040528015620003cd5781602001600182028036833780820191505090505b509050818152600183018586518101602084015b818310156200043e576003830192508251603f8160121c168501518253600182019150603f81600c1c168501518253600182019150603f8160061c168501518253600182019150603f8116850151825360018201915050620003e1565b6003895106600181146200045b57600281146200046c5762000477565b613d3d60f01b600283035262000477565b603d60f81b60018303525b50505050508093505050505b919050565b8280546200049690620009ef565b90600052602060002090601f016020900481019282620004ba576000855562000506565b82601f10620004d557805160ff191683800117855562000506565b8280016001018555821562000506579182015b8281111562000505578251825591602001919060010190620004e8565b5b50905062000515919062000519565b5090565b5b80821115620005345760008160009055506001016200051a565b5090565b6000604051905090565b600080fd5b600080fd5b600073ffffffffffffffffffffffffffffffffffffffff82169050919050565b600062000579826200054c565b9050919050565b6200058b816200056c565b81146200059757600080fd5b50565b600081519050620005ab8162000580565b92915050565b600080fd5b600080fd5b6000601f19601f8301169050919050565b7f4e487b7100000000000000000000000000000000000000000000000000000000600052604160045260246000fd5b6200060682620005bb565b810181811067ffffffffffffffff82111715620006285762000627620005cc565b5b80604052505050565b60006200063d62000538565b90506200064b8282620005fb565b919050565b600067ffffffffffffffff8211156200066e576200066d620005cc565b5b6200067982620005bb565b9050602081019050919050565b60005b83811015620006a657808201518184015260208101905062000689565b83811115620006b6576000848401525b50505050565b6000620006d3620006cd8462000650565b62000631565b905082815260208101848484011115620006f257620006f1620005b6565b5b620006ff84828562000686565b509392505050565b600082601f8301126200071f576200071e620005b1565b5b815162000731848260208601620006bc565b91505092915050565b60008060006060848603121562000756576200075562000542565b5b600062000766868287016200059a565b935050602084015167ffffffffffffffff8111156200078a576200078962000547565b5b620007988682870162000707565b925050604084015167ffffffffffffffff811115620007bc57620007bb62000547565b5b620007ca8682870162000707565b9150509250925092565b600081519050919050565b600081905092915050565b6000620007f782620007d4565b620008038185620007df565b93506200081581856020860162000686565b80840191505092915050565b60006200082f8284620007ea565b915081905092915050565b6000620008488285620007ea565b9150620008568284620007ea565b91508190509392505050565b6000819050919050565b7f4e487b7100000000000000000000000000000000000000000000000000000000600052601160045260246000fd5b6000620008a88262000862565b9150620008b58362000862565b9250827fffffffffffffffffffffffffffffffffffffffffffffffffffffffffffffffff03821115620008ed57620008ec6200086c565b5b828201905092915050565b7f4e487b7100000000000000000000000000000000000000000000000000000000600052601260045260246000fd5b6000620009348262000862565b9150620009418362000862565b925082620009545762000953620008f8565b5b828204905092915050565b60006200096c8262000862565b9150620009798362000862565b9250817fffffffffffffffffffffffffffffffffffffffffffffffffffffffffffffffff0483118215151615620009b557620009b46200086c565b5b828202905092915050565b7f4e487b7100000000000000000000000000000000000000000000000000000000600052602260045260246000fd5b6000600282049050600182168062000a0857607f821691505b6020821081141562000a1f5762000a1e620009c0565b5b50919050565b60805161336262000a4860003960008181610c380152610d1901526133626000f3fe608060405234801561001057600080fd5b506004361061014d5760003560e01c806370a08231116100c3578063a22cb4651161007c578063a22cb4651461038e578063b88d4fde146103aa578063c87b56dd146103c6578063e425aded146103f6578063e985e9c514610426578063f2fde38b146104565761014d565b806370a08231146102dc578063715018a61461030c578063727e2e28146103165780638da5cb5b1461033457806395d89b41146103525780639e87a5cd146103705761014d565b80631e930812116101155780631e9308121461020a57806323b872dd1461022657806330d871c61461024257806342842e0e146102725780636352211e1461028e5780636e02007d146102be5761014d565b806301ffc9a714610152578063045af9161461018257806306fdde03146101a0578063081812fc146101be578063095ea7b3146101ee575b600080fd5b61016c60048036038101906101679190611ea8565b610472565b6040516101799190611ef0565b60405180910390f35b61018a610554565b6040516101979190611fa4565b60405180910390f35b6101a86105e6565b6040516101b59190611fa4565b60405180910390f35b6101d860048036038101906101d39190611ffc565b610678565b6040516101e5919061206a565b60405180910390f35b610208600480360381019061020391906120b1565b6106be565b005b610224600480360381019061021f9190612127565b6107d6565b005b610240600480360381019061023b9190612154565b610851565b005b61025c600480360381019061025791906122dc565b6108b1565b6040516102699190611fa4565b60405180910390f35b61028c60048036038101906102879190612154565b61093e565b005b6102a860048036038101906102a39190611ffc565b61095e565b6040516102b5919061206a565b60405180910390f35b6102c6610a10565b6040516102d39190612334565b60405180910390f35b6102f660048036038101906102f1919061234f565b610a1a565b6040516103039190612334565b60405180910390f35b610314610ad2565b005b61031e610ae6565b60405161032b9190611fa4565b60405180910390f35b61033c610b78565b604051610349919061206a565b60405180910390f35b61035a610ba2565b6040516103679190611fa4565b60405180910390f35b610378610c34565b60405161038591906123db565b60405180910390f35b6103a860048036038101906103a39190612422565b610c5c565b005b6103c460048036038101906103bf9190612503565b610c72565b005b6103e060048036038101906103db9190611ffc565b610cd4565b6040516103ed9190611fa4565b60405180910390f35b610410600480360381019061040b9190611ffc565b610f54565b60405161041d9190612595565b60405180910390f35b610440600480360381019061043b91906125b0565b610f6c565b60405161044d9190611ef0565b60405180910390f35b610470600480360381019061046b919061234f565b611000565b005b60007f80ac58cd000000000000000000000000000000000000000000000000000000007bffffffffffffffffffffffffffffffffffffffffffffffffffffffff1916827bffffffffffffffffffffffffffffffffffffffffffffffffffffffff1916148061053d57507f5b5e139f000000000000000000000000000000000000000000000000000000007bffffffffffffffffffffffffffffffffffffffffffffffffffffffff1916827bffffffffffffffffffffffffffffffffffffffffffffffffffffffff1916145b8061054d575061054c826111fd565b5b9050919050565b6060600980546105639061261f565b80601f016020809104026020016040519081016040528092919081815260200182805461058f9061261f565b80156105dc5780601f106105b1576101008083540402835291602001916105dc565b820191906000526020600020905b8154815290600101906020018083116105bf57829003601f168201915b5050505050905090565b6060600080546105f59061261f565b80601f01602080910402602001604051908101604052809291908181526020018280546106219061261f565b801561066e5780601f106106435761010080835404028352916020019161066e565b820191906000526020600020905b81548152906001019060200180831161065157829003601f168201915b5050505050905090565b600061068382611267565b6004600083815260200190815260200160002060009054906101000a900473ffffffffffffffffffffffffffffffffffffffff169050919050565b60006106c98261095e565b90508073ffffffffffffffffffffffffffffffffffffffff168373ffffffffffffffffffffffffffffffffffffffff16141561073a576040517f08c379a0000000000000000000000000000000000000000000000000000000008152600401610731906126c3565b60405180910390fd5b8073ffffffffffffffffffffffffffffffffffffffff166107596112b2565b73ffffffffffffffffffffffffffffffffffffffff1614806107885750610787816107826112b2565b610f6c565b5b6107c7576040517f08c379a00000000000000000000000000000000000000000000000000000000081526004016107be90612755565b60405180910390fd5b6107d183836112ba565b505050565b80600a60006007548152602001908152602001600020819055506107fc33600754611373565b6007600081548092919061080f906127a4565b91905055506007547fef056af917de4bd6ff1f9b97077ffe80172e4aeb92435b985741ad42f579a16b826040516108469190612595565b60405180910390a250565b61086261085c6112b2565b82611391565b6108a1576040517f08c379a00000000000000000000000000000000000000000000000000000000081526004016108989061285f565b60405180910390fd5b6108ac838383611426565b505050565b606060006108dd836040516020016108c991906128bb565b604051602081830303815290604052611084565b90506040518060400160405280601a81526020017f646174613a696d6167652f7376672b786d6c3b6261736536342c000000000000815250816040516020016109279291906128d2565b604051602081830303815290604052915050919050565b61095983838360405180602001604052806000815250610c72565b505050565b6000806002600084815260200190815260200160002060009054906101000a900473ffffffffffffffffffffffffffffffffffffffff169050600073ffffffffffffffffffffffffffffffffffffffff168173ffffffffffffffffffffffffffffffffffffffff161415610a07576040517f08c379a00000000000000000000000000000000000000000000000000000000081526004016109fe90612942565b60405180910390fd5b80915050919050565b6000600754905090565b60008073ffffffffffffffffffffffffffffffffffffffff168273ffffffffffffffffffffffffffffffffffffffff161415610a8b576040517f08c379a0000000000000000000000000000000000000000000000000000000008152600401610a82906129d4565b60405180910390fd5b600360008373ffffffffffffffffffffffffffffffffffffffff1673ffffffffffffffffffffffffffffffffffffffff168152602001908152602001600020549050919050565b610ada61168d565b610ae4600061170b565b565b606060088054610af59061261f565b80601f0160208091040260200160405190810160405280929190818152602001828054610b219061261f565b8015610b6e5780601f10610b4357610100808354040283529160200191610b6e565b820191906000526020600020905b815481529060010190602001808311610b5157829003601f168201915b5050505050905090565b6000600660009054906101000a900473ffffffffffffffffffffffffffffffffffffffff16905090565b606060018054610bb19061261f565b80601f0160208091040260200160405190810160405280929190818152602001828054610bdd9061261f565b8015610c2a5780601f10610bff57610100808354040283529160200191610c2a565b820191906000526020600020905b815481529060010190602001808311610c0d57829003601f168201915b5050505050905090565b60007f0000000000000000000000000000000000000000000000000000000000000000905090565b610c6e610c676112b2565b83836117d1565b5050565b610c83610c7d6112b2565b83611391565b610cc2576040517f08c379a0000000000000000000000000000000000000000000000000000000008152600401610cb99061285f565b60405180910390fd5b610cce8484848461193e565b50505050565b6060610cdf8261199a565b610d15576040517f5c2b30c000000000000000000000000000000000000000000000000000000000815260040160405180910390fd5b60007f000000000000000000000000000000000000000000000000000000000000000073ffffffffffffffffffffffffffffffffffffffff1663feaf968c6040518163ffffffff1660e01b815260040160a06040518083038186803b158015610d7d57600080fd5b505afa158015610d91573d6000803e3d6000fd5b505050506040513d601f19601f82011682018060405250810190610db59190612a60565b505050915050600060088054610dca9061261f565b80601f0160208091040260200160405190810160405280929190818152602001828054610df69061261f565b8015610e435780601f10610e1857610100808354040283529160200191610e43565b820191906000526020600020905b815481529060010190602001808311610e2657829003601f168201915b50505050509050600a6000858152602001908152602001600020548212610ef25760098054610e719061261f565b80601f0160208091040260200160405190810160405280929190818152602001828054610e9d9061261f565b8015610eea5780601f10610ebf57610100808354040283529160200191610eea565b820191906000526020600020905b815481529060010190602001808311610ecd57829003601f168201915b505050505090505b610efa611a06565b610f2b610f056105e6565b83604051602001610f17929190612c7d565b604051602081830303815290604052611084565b604051602001610f3c9291906128d2565b60405160208183030381529060405292505050919050565b600a6020528060005260406000206000915090505481565b6000600560008473ffffffffffffffffffffffffffffffffffffffff1673ffffffffffffffffffffffffffffffffffffffff16815260200190815260200160002060008373ffffffffffffffffffffffffffffffffffffffff1673ffffffffffffffffffffffffffffffffffffffff16815260200190815260200160002060009054906101000a900460ff16905092915050565b61100861168d565b600073ffffffffffffffffffffffffffffffffffffffff168173ffffffffffffffffffffffffffffffffffffffff161415611078576040517f08c379a000000000000000000000000000000000000000000000000000000000815260040161106f90612d3f565b60405180910390fd5b6110818161170b565b50565b60606000825114156110a7576040518060200160405280600081525090506111f8565b60006040518060600160405280604081526020016132ed60409139905060006003600285516110d69190612d5f565b6110e09190612de4565b60046110ec9190612e15565b905060006020826110fd9190612d5f565b67ffffffffffffffff811115611116576111156121b1565b5b6040519080825280601f01601f1916602001820160405280156111485781602001600182028036833780820191505090505b509050818152600183018586518101602084015b818310156111b7576003830192508251603f8160121c168501518253600182019150603f81600c1c168501518253600182019150603f8160061c168501518253600182019150603f811685015182536001820191505061115c565b6003895106600181146111d157600281146111e1576111ec565b613d3d60f01b60028303526111ec565b603d60f81b60018303525b50505050508093505050505b919050565b60007f01ffc9a7000000000000000000000000000000000000000000000000000000007bffffffffffffffffffffffffffffffffffffffffffffffffffffffff1916827bffffffffffffffffffffffffffffffffffffffffffffffffffffffff1916149050919050565b6112708161199a565b6112af576040517f08c379a00000000000000000000000000000000000000000000000000000000081526004016112a690612942565b60405180910390fd5b50565b600033905090565b816004600083815260200190815260200160002060006101000a81548173ffffffffffffffffffffffffffffffffffffffff021916908373ffffffffffffffffffffffffffffffffffffffff160217905550808273ffffffffffffffffffffffffffffffffffffffff1661132d8361095e565b73ffffffffffffffffffffffffffffffffffffffff167f8c5be1e5ebec7d5bd14f71427d1e84f3dd0314c0f7b2291e5b200ac8c7c3b92560405160405180910390a45050565b61138d828260405180602001604052806000815250611a43565b5050565b60008061139d8361095e565b90508073ffffffffffffffffffffffffffffffffffffffff168473ffffffffffffffffffffffffffffffffffffffff1614806113df57506113de8185610f6c565b5b8061141d57508373ffffffffffffffffffffffffffffffffffffffff1661140584610678565b73ffffffffffffffffffffffffffffffffffffffff16145b91505092915050565b8273ffffffffffffffffffffffffffffffffffffffff166114468261095e565b73ffffffffffffffffffffffffffffffffffffffff161461149c576040517f08c379a000000000000000000000000000000000000000000000000000000000815260040161149390612ee1565b60405180910390fd5b600073ffffffffffffffffffffffffffffffffffffffff168273ffffffffffffffffffffffffffffffffffffffff16141561150c576040517f08c379a000000000000000000000000000000000000000000000000000000000815260040161150390612f73565b60405180910390fd5b611517838383611a9e565b6115226000826112ba565b6001600360008573ffffffffffffffffffffffffffffffffffffffff1673ffffffffffffffffffffffffffffffffffffffff16815260200190815260200160002060008282546115729190612f93565b925050819055506001600360008473ffffffffffffffffffffffffffffffffffffffff1673ffffffffffffffffffffffffffffffffffffffff16815260200190815260200160002060008282546115c99190612d5f565b92505081905550816002600083815260200190815260200160002060006101000a81548173ffffffffffffffffffffffffffffffffffffffff021916908373ffffffffffffffffffffffffffffffffffffffff160217905550808273ffffffffffffffffffffffffffffffffffffffff168473ffffffffffffffffffffffffffffffffffffffff167fddf252ad1be2c89b69c2b068fc378daa952ba7f163c4a11628f55a4df523b3ef60405160405180910390a4611688838383611aa3565b505050565b6116956112b2565b73ffffffffffffffffffffffffffffffffffffffff166116b3610b78565b73ffffffffffffffffffffffffffffffffffffffff1614611709576040517f08c379a000000000000000000000000000000000000000000000000000000000815260040161170090613013565b60405180910390fd5b565b6000600660009054906101000a900473ffffffffffffffffffffffffffffffffffffffff16905081600660006101000a81548173ffffffffffffffffffffffffffffffffffffffff021916908373ffffffffffffffffffffffffffffffffffffffff1602179055508173ffffffffffffffffffffffffffffffffffffffff168173ffffffffffffffffffffffffffffffffffffffff167f8be0079c531659141344cd1fd0a4f28419497f9722a3daafe3b4186f6b6457e060405160405180910390a35050565b8173ffffffffffffffffffffffffffffffffffffffff168373ffffffffffffffffffffffffffffffffffffffff161415611840576040517f08c379a00000000000000000000000000000000000000000000000000000000081526004016118379061307f565b60405180910390fd5b80600560008573ffffffffffffffffffffffffffffffffffffffff1673ffffffffffffffffffffffffffffffffffffffff16815260200190815260200160002060008473ffffffffffffffffffffffffffffffffffffffff1673ffffffffffffffffffffffffffffffffffffffff16815260200190815260200160002060006101000a81548160ff0219169083151502179055508173ffffffffffffffffffffffffffffffffffffffff168373ffffffffffffffffffffffffffffffffffffffff167f17307eab39ab6107e8899845ad3d59bd9653f200f220920489ca2b5937696c31836040516119319190611ef0565b60405180910390a3505050565b611949848484611426565b61195584848484611aa8565b611994576040517f08c379a000000000000000000000000000000000000000000000000000000000815260040161198b90613111565b60405180910390fd5b50505050565b60008073ffffffffffffffffffffffffffffffffffffffff166002600084815260200190815260200160002060009054906101000a900473ffffffffffffffffffffffffffffffffffffffff1673ffffffffffffffffffffffffffffffffffffffff1614159050919050565b60606040518060400160405280601d81526020017f646174613a6170706c69636174696f6e2f6a736f6e3b6261736536342c000000815250905090565b611a4d8383611c3f565b611a5a6000848484611aa8565b611a99576040517f08c379a0000000000000000000000000000000000000000000000000000000008152600401611a9090613111565b60405180910390fd5b505050565b505050565b505050565b6000611ac98473ffffffffffffffffffffffffffffffffffffffff16611e19565b15611c32578373ffffffffffffffffffffffffffffffffffffffff1663150b7a02611af26112b2565b8786866040518563ffffffff1660e01b8152600401611b149493929190613186565b602060405180830381600087803b158015611b2e57600080fd5b505af1925050508015611b5f57506040513d601f19601f82011682018060405250810190611b5c91906131e7565b60015b611be2573d8060008114611b8f576040519150601f19603f3d011682016040523d82523d6000602084013e611b94565b606091505b50600081511415611bda576040517f08c379a0000000000000000000000000000000000000000000000000000000008152600401611bd190613111565b60405180910390fd5b805181602001fd5b63150b7a0260e01b7bffffffffffffffffffffffffffffffffffffffffffffffffffffffff1916817bffffffffffffffffffffffffffffffffffffffffffffffffffffffff191614915050611c37565b600190505b949350505050565b600073ffffffffffffffffffffffffffffffffffffffff168273ffffffffffffffffffffffffffffffffffffffff161415611caf576040517f08c379a0000000000000000000000000000000000000000000000000000000008152600401611ca690613260565b60405180910390fd5b611cb88161199a565b15611cf8576040517f08c379a0000000000000000000000000000000000000000000000000000000008152600401611cef906132cc565b60405180910390fd5b611d0460008383611a9e565b6001600360008473ffffffffffffffffffffffffffffffffffffffff1673ffffffffffffffffffffffffffffffffffffffff1681526020019081526020016000206000828254611d549190612d5f565b92505081905550816002600083815260200190815260200160002060006101000a81548173ffffffffffffffffffffffffffffffffffffffff021916908373ffffffffffffffffffffffffffffffffffffffff160217905550808273ffffffffffffffffffffffffffffffffffffffff16600073ffffffffffffffffffffffffffffffffffffffff167fddf252ad1be2c89b69c2b068fc378daa952ba7f163c4a11628f55a4df523b3ef60405160405180910390a4611e1560008383611aa3565b5050565b6000808273ffffffffffffffffffffffffffffffffffffffff163b119050919050565b6000604051905090565b600080fd5b600080fd5b60007fffffffff0000000000000000000000000000000000000000000000000000000082169050919050565b611e8581611e50565b8114611e9057600080fd5b50565b600081359050611ea281611e7c565b92915050565b600060208284031215611ebe57611ebd611e46565b5b6000611ecc84828501611e93565b91505092915050565b60008115159050919050565b611eea81611ed5565b82525050565b6000602082019050611f056000830184611ee1565b92915050565b600081519050919050565b600082825260208201905092915050565b60005b83811015611f45578082015181840152602081019050611f2a565b83811115611f54576000848401525b50505050565b6000601f19601f8301169050919050565b6000611f7682611f0b565b611f808185611f16565b9350611f90818560208601611f27565b611f9981611f5a565b840191505092915050565b60006020820190508181036000830152611fbe8184611f6b565b905092915050565b6000819050919050565b611fd981611fc6565b8114611fe457600080fd5b50565b600081359050611ff681611fd0565b92915050565b60006020828403121561201257612011611e46565b5b600061202084828501611fe7565b91505092915050565b600073ffffffffffffffffffffffffffffffffffffffff82169050919050565b600061205482612029565b9050919050565b61206481612049565b82525050565b600060208201905061207f600083018461205b565b92915050565b61208e81612049565b811461209957600080fd5b50565b6000813590506120ab81612085565b92915050565b600080604083850312156120c8576120c7611e46565b5b60006120d68582860161209c565b92505060206120e785828601611fe7565b9150509250929050565b6000819050919050565b612104816120f1565b811461210f57600080fd5b50565b600081359050612121816120fb565b92915050565b60006020828403121561213d5761213c611e46565b5b600061214b84828501612112565b91505092915050565b60008060006060848603121561216d5761216c611e46565b5b600061217b8682870161209c565b935050602061218c8682870161209c565b925050604061219d86828701611fe7565b9150509250925092565b600080fd5b600080fd5b7f4e487b7100000000000000000000000000000000000000000000000000000000600052604160045260246000fd5b6121e982611f5a565b810181811067ffffffffffffffff82111715612208576122076121b1565b5b80604052505050565b600061221b611e3c565b905061222782826121e0565b919050565b600067ffffffffffffffff821115612247576122466121b1565b5b61225082611f5a565b9050602081019050919050565b82818337600083830152505050565b600061227f61227a8461222c565b612211565b90508281526020810184848401111561229b5761229a6121ac565b5b6122a684828561225d565b509392505050565b600082601f8301126122c3576122c26121a7565b5b81356122d384826020860161226c565b91505092915050565b6000602082840312156122f2576122f1611e46565b5b600082013567ffffffffffffffff8111156123105761230f611e4b565b5b61231c848285016122ae565b91505092915050565b61232e81611fc6565b82525050565b60006020820190506123496000830184612325565b92915050565b60006020828403121561236557612364611e46565b5b60006123738482850161209c565b91505092915050565b6000819050919050565b60006123a161239c61239784612029565b61237c565b612029565b9050919050565b60006123b382612386565b9050919050565b60006123c5826123a8565b9050919050565b6123d5816123ba565b82525050565b60006020820190506123f060008301846123cc565b92915050565b6123ff81611ed5565b811461240a57600080fd5b50565b60008135905061241c816123f6565b92915050565b6000806040838503121561243957612438611e46565b5b60006124478582860161209c565b92505060206124588582860161240d565b9150509250929050565b600067ffffffffffffffff82111561247d5761247c6121b1565b5b61248682611f5a565b9050602081019050919050565b60006124a66124a184612462565b612211565b9050828152602081018484840111156124c2576124c16121ac565b5b6124cd84828561225d565b509392505050565b600082601f8301126124ea576124e96121a7565b5b81356124fa848260208601612493565b91505092915050565b6000806000806080858703121561251d5761251c611e46565b5b600061252b8782880161209c565b945050602061253c8782880161209c565b935050604061254d87828801611fe7565b925050606085013567ffffffffffffffff81111561256e5761256d611e4b565b5b61257a878288016124d5565b91505092959194509250565b61258f816120f1565b82525050565b60006020820190506125aa6000830184612586565b92915050565b600080604083850312156125c7576125c6611e46565b5b60006125d58582860161209c565b92505060206125e68582860161209c565b9150509250929050565b7f4e487b7100000000000000000000000000000000000000000000000000000000600052602260045260246000fd5b6000600282049050600182168061263757607f821691505b6020821081141561264b5761264a6125f0565b5b50919050565b7f4552433732313a20617070726f76616c20746f2063757272656e74206f776e6560008201527f7200000000000000000000000000000000000000000000000000000000000000602082015250565b60006126ad602183611f16565b91506126b882612651565b604082019050919050565b600060208201905081810360008301526126dc816126a0565b9050919050565b7f4552433732313a20617070726f76652063616c6c6572206973206e6f7420746f60008201527f6b656e206f776e6572206e6f7220617070726f76656420666f7220616c6c0000602082015250565b600061273f603e83611f16565b915061274a826126e3565b604082019050919050565b6000602082019050818103600083015261276e81612732565b9050919050565b7f4e487b7100000000000000000000000000000000000000000000000000000000600052601160045260246000fd5b60006127af82611fc6565b91507fffffffffffffffffffffffffffffffffffffffffffffffffffffffffffffffff8214156127e2576127e1612775565b5b600182019050919050565b7f4552433732313a2063616c6c6572206973206e6f7420746f6b656e206f776e6560008201527f72206e6f7220617070726f766564000000000000000000000000000000000000602082015250565b6000612849602e83611f16565b9150612854826127ed565b604082019050919050565b600060208201905081810360008301526128788161283c565b9050919050565b600081905092915050565b600061289582611f0b565b61289f818561287f565b93506128af818560208601611f27565b80840191505092915050565b60006128c7828461288a565b915081905092915050565b60006128de828561288a565b91506128ea828461288a565b91508190509392505050565b7f4552433732313a20696e76616c696420746f6b656e2049440000000000000000600082015250565b600061292c601883611f16565b9150612937826128f6565b602082019050919050565b6000602082019050818103600083015261295b8161291f565b9050919050565b7f4552433732313a2061646472657373207a65726f206973206e6f74206120766160008201527f6c6964206f776e65720000000000000000000000000000000000000000000000602082015250565b60006129be602983611f16565b91506129c982612962565b604082019050919050565b600060208201905081810360008301526129ed816129b1565b9050919050565b600069ffffffffffffffffffff82169050919050565b612a13816129f4565b8114612a1e57600080fd5b50565b600081519050612a3081612a0a565b92915050565b600081519050612a45816120fb565b92915050565b600081519050612a5a81611fd0565b92915050565b600080600080600060a08688031215612a7c57612a7b611e46565b5b6000612a8a88828901612a21565b9550506020612a9b88828901612a36565b9450506040612aac88828901612a4b565b9350506060612abd88828901612a4b565b9250506080612ace88828901612a21565b9150509295509295909350565b7f7b226e616d65223a222200000000000000000000000000000000000000000000600082015250565b6000612b11600a8361287f565b9150612b1c82612adb565b600a82019050919050565b7f222c20226465736372697074696f6e223a20224e46542074686174206368616960008201527f6e676573206261736564206f6e20455448205072696365222c20000000000000602082015250565b6000612b83603a8361287f565b9150612b8e82612b27565b603a82019050919050565b7f2261747472696275746573223a205b7b2274726169745f74797065223a20226360008201527f6f6f6c6e657373222c202276616c7565223a203130307d5d2c2022696d61676560208201527f223a202200000000000000000000000000000000000000000000000000000000604082015250565b6000612c1b60448361287f565b9150612c2682612b99565b604482019050919050565b7f227d000000000000000000000000000000000000000000000000000000000000600082015250565b6000612c6760028361287f565b9150612c7282612c31565b600282019050919050565b6000612c8882612b04565b9150612c94828561288a565b9150612c9f82612b76565b9150612caa82612c0e565b9150612cb6828461288a565b9150612cc182612c5a565b91508190509392505050565b7f4f776e61626c653a206e6577206f776e657220697320746865207a65726f206160008201527f6464726573730000000000000000000000000000000000000000000000000000602082015250565b6000612d29602683611f16565b9150612d3482612ccd565b604082019050919050565b60006020820190508181036000830152612d5881612d1c565b9050919050565b6000612d6a82611fc6565b9150612d7583611fc6565b9250827fffffffffffffffffffffffffffffffffffffffffffffffffffffffffffffffff03821115612daa57612da9612775565b5b828201905092915050565b7f4e487b7100000000000000000000000000000000000000000000000000000000600052601260045260246000fd5b6000612def82611fc6565b9150612dfa83611fc6565b925082612e0a57612e09612db5565b5b828204905092915050565b6000612e2082611fc6565b9150612e2b83611fc6565b9250817fffffffffffffffffffffffffffffffffffffffffffffffffffffffffffffffff0483118215151615612e6457612e63612775565b5b828202905092915050565b7f4552433732313a207472616e736665722066726f6d20696e636f72726563742060008201527f6f776e6572000000000000000000000000000000000000000000000000000000602082015250565b6000612ecb602583611f16565b9150612ed682612e6f565b604082019050919050565b60006020820190508181036000830152612efa81612ebe565b9050919050565b7f4552433732313a207472616e7366657220746f20746865207a65726f2061646460008201527f7265737300000000000000000000000000000000000000000000000000000000602082015250565b6000612f5d602483611f16565b9150612f6882612f01565b604082019050919050565b60006020820190508181036000830152612f8c81612f50565b9050919050565b6000612f9e82611fc6565b9150612fa983611fc6565b925082821015612fbc57612fbb612775565b5b828203905092915050565b7f4f776e61626c653a2063616c6c6572206973206e6f7420746865206f776e6572600082015250565b6000612ffd602083611f16565b915061300882612fc7565b602082019050919050565b6000602082019050818103600083015261302c81612ff0565b9050919050565b7f4552433732313a20617070726f766520746f2063616c6c657200000000000000600082015250565b6000613069601983611f16565b915061307482613033565b602082019050919050565b600060208201905081810360008301526130988161305c565b9050919050565b7f4552433732313a207472616e7366657220746f206e6f6e20455243373231526560008201527f63656976657220696d706c656d656e7465720000000000000000000000000000602082015250565b60006130fb603283611f16565b91506131068261309f565b604082019050919050565b6000602082019050818103600083015261312a816130ee565b9050919050565b600081519050919050565b600082825260208201905092915050565b600061315882613131565b613162818561313c565b9350613172818560208601611f27565b61317b81611f5a565b840191505092915050565b600060808201905061319b600083018761205b565b6131a8602083018661205b565b6131b56040830185612325565b81810360608301526131c7818461314d565b905095945050505050565b6000815190506131e181611e7c565b92915050565b6000602082840312156131fd576131fc611e46565b5b600061320b848285016131d2565b91505092915050565b7f4552433732313a206d696e7420746f20746865207a65726f2061646472657373600082015250565b600061324a602083611f16565b915061325582613214565b602082019050919050565b600060208201905081810360008301526132798161323d565b9050919050565b7f4552433732313a20746f6b656e20616c7265616479206d696e74656400000000600082015250565b60006132b6601c83611f16565b91506132c182613280565b602082019050919050565b600060208201905081810360008301526132e5816132a9565b905091905056fe4142434445464748494a4b4c4d4e4f505152535455565758595a6162636465666768696a6b6c6d6e6f707172737475767778797a303132333435363738392b2fa26469706673582212203d3f4b5995bb2fc9942b03a0cf233c996d4853068cec77729e592487c518f28964736f6c634300080900334142434445464748494a4b4c4d4e4f505152535455565758595a6162636465666768696a6b6c6d6e6f707172737475767778797a303132333435363738392b2f",
  "devdoc": {
    "kind": "dev",
    "methods": {
      "approve(address,uint256)": {
        "details": "See {IERC721-approve}."
      },
      "balanceOf(address)": {
        "details": "See {IERC721-balanceOf}."
      },
      "getApproved(uint256)": {
        "details": "See {IERC721-getApproved}."
      },
      "isApprovedForAll(address,address)": {
        "details": "See {IERC721-isApprovedForAll}."
      },
      "name()": {
        "details": "See {IERC721Metadata-name}."
      },
      "owner()": {
        "details": "Returns the address of the current owner."
      },
      "ownerOf(uint256)": {
        "details": "See {IERC721-ownerOf}."
      },
      "renounceOwnership()": {
        "details": "Leaves the contract without owner. It will not be possible to call `onlyOwner` functions anymore. Can only be called by the current owner. NOTE: Renouncing ownership will leave the contract without an owner, thereby removing any functionality that is only available to the owner."
      },
      "safeTransferFrom(address,address,uint256)": {
        "details": "See {IERC721-safeTransferFrom}."
      },
      "safeTransferFrom(address,address,uint256,bytes)": {
        "details": "See {IERC721-safeTransferFrom}."
      },
      "setApprovalForAll(address,bool)": {
        "details": "See {IERC721-setApprovalForAll}."
      },
      "supportsInterface(bytes4)": {
        "details": "See {IERC165-supportsInterface}."
      },
      "symbol()": {
        "details": "See {IERC721Metadata-symbol}."
      },
      "tokenURI(uint256)": {
        "details": "See {IERC721Metadata-tokenURI}."
      },
      "transferFrom(address,address,uint256)": {
        "details": "See {IERC721-transferFrom}."
      },
      "transferOwnership(address)": {
        "details": "Transfers ownership of the contract to a new account (`newOwner`). Can only be called by the current owner."
      }
    },
    "version": 1
  },
  "userdoc": {
    "kind": "user",
    "methods": {},
    "version": 1
  },
  "storageLayout": {
    "storage": [
      {
        "astId": 1005,
        "contract": "contracts/DynamicSvgNFT.sol:DynamicSvgNFT",
        "label": "_name",
        "offset": 0,
        "slot": "0",
        "type": "t_string_storage"
      },
      {
        "astId": 1007,
        "contract": "contracts/DynamicSvgNFT.sol:DynamicSvgNFT",
        "label": "_symbol",
        "offset": 0,
        "slot": "1",
        "type": "t_string_storage"
      },
      {
        "astId": 1011,
        "contract": "contracts/DynamicSvgNFT.sol:DynamicSvgNFT",
        "label": "_owners",
        "offset": 0,
        "slot": "2",
        "type": "t_mapping(t_uint256,t_address)"
      },
      {
        "astId": 1015,
        "contract": "contracts/DynamicSvgNFT.sol:DynamicSvgNFT",
        "label": "_balances",
        "offset": 0,
        "slot": "3",
        "type": "t_mapping(t_address,t_uint256)"
      },
      {
        "astId": 1019,
        "contract": "contracts/DynamicSvgNFT.sol:DynamicSvgNFT",
        "label": "_tokenApprovals",
        "offset": 0,
        "slot": "4",
        "type": "t_mapping(t_uint256,t_address)"
      },
      {
        "astId": 1025,
        "contract": "contracts/DynamicSvgNFT.sol:DynamicSvgNFT",
        "label": "_operatorApprovals",
        "offset": 0,
        "slot": "5",
        "type": "t_mapping(t_address,t_mapping(t_address,t_bool))"
      },
      {
        "astId": 874,
        "contract": "contracts/DynamicSvgNFT.sol:DynamicSvgNFT",
        "label": "_owner",
        "offset": 0,
        "slot": "6",
        "type": "t_address"
      },
      {
        "astId": 2899,
        "contract": "contracts/DynamicSvgNFT.sol:DynamicSvgNFT",
        "label": "s_tokenCounter",
        "offset": 0,
        "slot": "7",
        "type": "t_uint256"
      },
      {
        "astId": 2901,
        "contract": "contracts/DynamicSvgNFT.sol:DynamicSvgNFT",
        "label": "i_lowSvg",
        "offset": 0,
        "slot": "8",
        "type": "t_string_storage"
      },
      {
        "astId": 2903,
        "contract": "contracts/DynamicSvgNFT.sol:DynamicSvgNFT",
        "label": "i_highSvg",
        "offset": 0,
        "slot": "9",
        "type": "t_string_storage"
      },
      {
        "astId": 2913,
        "contract": "contracts/DynamicSvgNFT.sol:DynamicSvgNFT",
        "label": "s_tokenIdToHighValue",
        "offset": 0,
        "slot": "10",
        "type": "t_mapping(t_uint256,t_int256)"
      }
    ],
    "types": {
      "t_address": {
        "encoding": "inplace",
        "label": "address",
        "numberOfBytes": "20"
      },
      "t_bool": {
        "encoding": "inplace",
        "label": "bool",
        "numberOfBytes": "1"
      },
      "t_int256": {
        "encoding": "inplace",
        "label": "int256",
        "numberOfBytes": "32"
      },
      "t_mapping(t_address,t_bool)": {
        "encoding": "mapping",
        "key": "t_address",
        "label": "mapping(address => bool)",
        "numberOfBytes": "32",
        "value": "t_bool"
      },
      "t_mapping(t_address,t_mapping(t_address,t_bool))": {
        "encoding": "mapping",
        "key": "t_address",
        "label": "mapping(address => mapping(address => bool))",
        "numberOfBytes": "32",
        "value": "t_mapping(t_address,t_bool)"
      },
      "t_mapping(t_address,t_uint256)": {
        "encoding": "mapping",
        "key": "t_address",
        "label": "mapping(address => uint256)",
        "numberOfBytes": "32",
        "value": "t_uint256"
      },
      "t_mapping(t_uint256,t_address)": {
        "encoding": "mapping",
        "key": "t_uint256",
        "label": "mapping(uint256 => address)",
        "numberOfBytes": "32",
        "value": "t_address"
      },
      "t_mapping(t_uint256,t_int256)": {
        "encoding": "mapping",
        "key": "t_uint256",
        "label": "mapping(uint256 => int256)",
        "numberOfBytes": "32",
        "value": "t_int256"
      },
      "t_string_storage": {
        "encoding": "bytes",
        "label": "string",
        "numberOfBytes": "32"
      },
      "t_uint256": {
        "encoding": "inplace",
        "label": "uint256",
        "numberOfBytes": "32"
      }
    }
  }
}