{
  "address": "0xa84fCe74378986C3C235Fee7153aE9a13fcfDE89",
  "abi": [
    {
      "inputs": [
        {
          "internalType": "address",
          "name": "vrfCoordinatorV2",
          "type": "address"
        },
        {
          "internalType": "uint64",
          "name": "subscriptionId",
          "type": "uint64"
        },
        {
          "internalType": "bytes32",
          "name": "gasLane",
          "type": "bytes32"
        },
        {
          "internalType": "uint32",
          "name": "callbackGasLimit",
          "type": "uint32"
        },
        {
          "internalType": "string[3]",
          "name": "NFTTokenURI",
          "type": "string[3]"
        },
        {
          "internalType": "uint256",
          "name": "mintFee",
          "type": "uint256"
        }
      ],
      "stateMutability": "nonpayable",
      "type": "constructor"
    },
    {
      "inputs": [
        {
          "internalType": "address",
          "name": "have",
          "type": "address"
        },
        {
          "internalType": "address",
          "name": "want",
          "type": "address"
        }
      ],
      "name": "OnlyCoordinatorCanFulfill",
      "type": "error"
    },
    {
      "inputs": [],
      "name": "RandomIpfsNFT__AlreadyInitialized",
      "type": "error"
    },
    {
      "inputs": [],
      "name": "RandomIpfsNFT__NeedMoreETH",
      "type": "error"
    },
    {
      "inputs": [],
      "name": "RandomIpfsNFT__RangeOutOfBounds",
      "type": "error"
    },
    {
      "inputs": [],
      "name": "RandomIpfsNFT__WithdrawFailed",
      "type": "error"
    },
    {
      "anonymous": false,
      "inputs": [
        {
          "indexed": true,
          "internalType": "address",
          "name": "owner",
          "type": "address"
        },
        {
          "indexed": true,
          "internalType": "address",
          "name": "approved",
          "type": "address"
        },
        {
          "indexed": true,
          "internalType": "uint256",
          "name": "tokenId",
          "type": "uint256"
        }
      ],
      "name": "Approval",
      "type": "event"
    },
    {
      "anonymous": false,
      "inputs": [
        {
          "indexed": true,
          "internalType": "address",
          "name": "owner",
          "type": "address"
        },
        {
          "indexed": true,
          "internalType": "address",
          "name": "operator",
          "type": "address"
        },
        {
          "indexed": false,
          "internalType": "bool",
          "name": "approved",
          "type": "bool"
        }
      ],
      "name": "ApprovalForAll",
      "type": "event"
    },
    {
      "anonymous": false,
      "inputs": [
        {
          "indexed": false,
          "internalType": "enum RandomIpfsNFT.NFTType",
          "name": "tipo",
          "type": "uint8"
        },
        {
          "indexed": false,
          "internalType": "address",
          "name": "minter",
          "type": "address"
        }
      ],
      "name": "NFTMinted",
      "type": "event"
    },
    {
      "anonymous": false,
      "inputs": [
        {
          "indexed": true,
          "internalType": "uint256",
          "name": "requestId",
          "type": "uint256"
        },
        {
          "indexed": false,
          "internalType": "address",
          "name": "requester",
          "type": "address"
        }
      ],
      "name": "NFTRequested",
      "type": "event"
    },
    {
      "anonymous": false,
      "inputs": [
        {
          "indexed": true,
          "internalType": "address",
          "name": "previousOwner",
          "type": "address"
        },
        {
          "indexed": true,
          "internalType": "address",
          "name": "newOwner",
          "type": "address"
        }
      ],
      "name": "OwnershipTransferred",
      "type": "event"
    },
    {
      "anonymous": false,
      "inputs": [
        {
          "indexed": true,
          "internalType": "address",
          "name": "from",
          "type": "address"
        },
        {
          "indexed": true,
          "internalType": "address",
          "name": "to",
          "type": "address"
        },
        {
          "indexed": true,
          "internalType": "uint256",
          "name": "tokenId",
          "type": "uint256"
        }
      ],
      "name": "Transfer",
      "type": "event"
    },
    {
      "inputs": [
        {
          "internalType": "address",
          "name": "to",
          "type": "address"
        },
        {
          "internalType": "uint256",
          "name": "tokenId",
          "type": "uint256"
        }
      ],
      "name": "approve",
      "outputs": [],
      "stateMutability": "nonpayable",
      "type": "function"
    },
    {
      "inputs": [
        {
          "internalType": "address",
          "name": "owner",
          "type": "address"
        }
      ],
      "name": "balanceOf",
      "outputs": [
        {
          "internalType": "uint256",
          "name": "",
          "type": "uint256"
        }
      ],
      "stateMutability": "view",
      "type": "function"
    },
    {
      "inputs": [
        {
          "internalType": "uint256",
          "name": "tokenId",
          "type": "uint256"
        }
      ],
      "name": "getApproved",
      "outputs": [
        {
          "internalType": "address",
          "name": "",
          "type": "address"
        }
      ],
      "stateMutability": "view",
      "type": "function"
    },
    {
      "inputs": [],
      "name": "getChanceArray",
      "outputs": [
        {
          "internalType": "uint256[3]",
          "name": "",
          "type": "uint256[3]"
        }
      ],
      "stateMutability": "pure",
      "type": "function"
    },
    {
      "inputs": [],
      "name": "getInitialized",
      "outputs": [
        {
          "internalType": "bool",
          "name": "",
          "type": "bool"
        }
      ],
      "stateMutability": "view",
      "type": "function"
    },
    {
      "inputs": [],
      "name": "getKeyHash",
      "outputs": [
        {
          "internalType": "bytes32",
          "name": "",
          "type": "bytes32"
        }
      ],
      "stateMutability": "view",
      "type": "function"
    },
    {
      "inputs": [],
      "name": "getMintFee",
      "outputs": [
        {
          "internalType": "uint256",
          "name": "",
          "type": "uint256"
        }
      ],
      "stateMutability": "view",
      "type": "function"
    },
    {
      "inputs": [
        {
          "internalType": "uint256",
          "name": "moddedRnd",
          "type": "uint256"
        }
      ],
      "name": "getRarityFromModdedRnd",
      "outputs": [
        {
          "internalType": "enum RandomIpfsNFT.NFTType",
          "name": "",
          "type": "uint8"
        }
      ],
      "stateMutability": "pure",
      "type": "function"
    },
    {
      "inputs": [],
      "name": "getTokenCounter",
      "outputs": [
        {
          "internalType": "uint256",
          "name": "",
          "type": "uint256"
        }
      ],
      "stateMutability": "view",
      "type": "function"
    },
    {
      "inputs": [
        {
          "internalType": "uint256",
          "name": "index",
          "type": "uint256"
        }
      ],
      "name": "getTokenUris",
      "outputs": [
        {
          "internalType": "string",
          "name": "",
          "type": "string"
        }
      ],
      "stateMutability": "view",
      "type": "function"
    },
    {
      "inputs": [
        {
          "internalType": "address",
          "name": "owner",
          "type": "address"
        },
        {
          "internalType": "address",
          "name": "operator",
          "type": "address"
        }
      ],
      "name": "isApprovedForAll",
      "outputs": [
        {
          "internalType": "bool",
          "name": "",
          "type": "bool"
        }
      ],
      "stateMutability": "view",
      "type": "function"
    },
    {
      "inputs": [],
      "name": "name",
      "outputs": [
        {
          "internalType": "string",
          "name": "",
          "type": "string"
        }
      ],
      "stateMutability": "view",
      "type": "function"
    },
    {
      "inputs": [],
      "name": "owner",
      "outputs": [
        {
          "internalType": "address",
          "name": "",
          "type": "address"
        }
      ],
      "stateMutability": "view",
      "type": "function"
    },
    {
      "inputs": [
        {
          "internalType": "uint256",
          "name": "tokenId",
          "type": "uint256"
        }
      ],
      "name": "ownerOf",
      "outputs": [
        {
          "internalType": "address",
          "name": "",
          "type": "address"
        }
      ],
      "stateMutability": "view",
      "type": "function"
    },
    {
      "inputs": [
        {
          "internalType": "uint256",
          "name": "requestId",
          "type": "uint256"
        },
        {
          "internalType": "uint256[]",
          "name": "randomWords",
          "type": "uint256[]"
        }
      ],
      "name": "rawFulfillRandomWords",
      "outputs": [],
      "stateMutability": "nonpayable",
      "type": "function"
    },
    {
      "inputs": [],
      "name": "renounceOwnership",
      "outputs": [],
      "stateMutability": "nonpayable",
      "type": "function"
    },
    {
      "inputs": [],
      "name": "requestNft",
      "outputs": [
        {
          "internalType": "uint256",
          "name": "requestId",
          "type": "uint256"
        }
      ],
      "stateMutability": "payable",
      "type": "function"
    },
    {
      "inputs": [
        {
          "internalType": "uint256",
          "name": "",
          "type": "uint256"
        }
      ],
      "name": "s_requestIdToSender",
      "outputs": [
        {
          "internalType": "address",
          "name": "",
          "type": "address"
        }
      ],
      "stateMutability": "view",
      "type": "function"
    },
    {
      "inputs": [
        {
          "internalType": "address",
          "name": "from",
          "type": "address"
        },
        {
          "internalType": "address",
          "name": "to",
          "type": "address"
        },
        {
          "internalType": "uint256",
          "name": "tokenId",
          "type": "uint256"
        }
      ],
      "name": "safeTransferFrom",
      "outputs": [],
      "stateMutability": "nonpayable",
      "type": "function"
    },
    {
      "inputs": [
        {
          "internalType": "address",
          "name": "from",
          "type": "address"
        },
        {
          "internalType": "address",
          "name": "to",
          "type": "address"
        },
        {
          "internalType": "uint256",
          "name": "tokenId",
          "type": "uint256"
        },
        {
          "internalType": "bytes",
          "name": "data",
          "type": "bytes"
        }
      ],
      "name": "safeTransferFrom",
      "outputs": [],
      "stateMutability": "nonpayable",
      "type": "function"
    },
    {
      "inputs": [
        {
          "internalType": "address",
          "name": "operator",
          "type": "address"
        },
        {
          "internalType": "bool",
          "name": "approved",
          "type": "bool"
        }
      ],
      "name": "setApprovalForAll",
      "outputs": [],
      "stateMutability": "nonpayable",
      "type": "function"
    },
    {
      "inputs": [
        {
          "internalType": "bytes4",
          "name": "interfaceId",
          "type": "bytes4"
        }
      ],
      "name": "supportsInterface",
      "outputs": [
        {
          "internalType": "bool",
          "name": "",
          "type": "bool"
        }
      ],
      "stateMutability": "view",
      "type": "function"
    },
    {
      "inputs": [],
      "name": "symbol",
      "outputs": [
        {
          "internalType": "string",
          "name": "",
          "type": "string"
        }
      ],
      "stateMutability": "view",
      "type": "function"
    },
    {
      "inputs": [
        {
          "internalType": "uint256",
          "name": "tokenId",
          "type": "uint256"
        }
      ],
      "name": "tokenURI",
      "outputs": [
        {
          "internalType": "string",
          "name": "",
          "type": "string"
        }
      ],
      "stateMutability": "view",
      "type": "function"
    },
    {
      "inputs": [
        {
          "internalType": "address",
          "name": "from",
          "type": "address"
        },
        {
          "internalType": "address",
          "name": "to",
          "type": "address"
        },
        {
          "internalType": "uint256",
          "name": "tokenId",
          "type": "uint256"
        }
      ],
      "name": "transferFrom",
      "outputs": [],
      "stateMutability": "nonpayable",
      "type": "function"
    },
    {
      "inputs": [
        {
          "internalType": "address",
          "name": "newOwner",
          "type": "address"
        }
      ],
      "name": "transferOwnership",
      "outputs": [],
      "stateMutability": "nonpayable",
      "type": "function"
    },
    {
      "inputs": [],
      "name": "withdraw",
      "outputs": [],
      "stateMutability": "nonpayable",
      "type": "function"
    }
  ],
  "transactionHash": "0x8129c8633a424a01074bf1bce694420c1c7cdda55c8410550078ebb3f32da225",
  "args": [
    "0x2Ca8E0C643bDe4C2E08ab1fA0da3401AdAD7734D",
    "10486",
    "0x79d3d8832d904592c0bf9818b621522c988bb8b0c05cdc3b15aea1b6e8db0c15",
    "500000",
    [
      "ipfs://Qme1TGnh4KT5iedGQCyRnUN3ytxZBmrneJ8jVRoE1XV7a9",
      "ipfs://QmeD3R6XTivRGNRQSwg756ebxS7qKc1CYheJDikHFyrfHL",
      "ipfs://QmYL8GLKTmRtYebwMQ9fdUwDSoEgLwzggjcuF9AaZMV1zH"
    ],
    "100000000000000"
  ],
  "numDeployments": 1,
  "solcInputHash": "c3191169fcc933c8ed02fedf0f63894f",
  "bytecode": "0x6101406040523480156200001257600080fd5b506040516200444638038062004446833981810160405281019062000038919062000876565b6040518060400160405280600f81526020017f52616e646f6d2049504653204e465400000000000000000000000000000000008152506040518060400160405280600381526020017f52494e0000000000000000000000000000000000000000000000000000000000815250878073ffffffffffffffffffffffffffffffffffffffff1660808173ffffffffffffffffffffffffffffffffffffffff1681525050508160009080519060200190620000f292919062000309565b5080600190805190602001906200010b92919062000309565b5050506200012e62000122620001c160201b60201c565b620001c960201b60201c565b8573ffffffffffffffffffffffffffffffffffffffff1660a08173ffffffffffffffffffffffffffffffffffffffff16815250508467ffffffffffffffff1660c08167ffffffffffffffff16815250508360e081815250508263ffffffff166101008163ffffffff1681525050620001ac826200028f60201b60201c565b80610120818152505050505050505062000996565b600033905090565b6000600760009054906101000a900473ffffffffffffffffffffffffffffffffffffffff16905081600760006101000a81548173ffffffffffffffffffffffffffffffffffffffff021916908373ffffffffffffffffffffffffffffffffffffffff1602179055508173ffffffffffffffffffffffffffffffffffffffff168173ffffffffffffffffffffffffffffffffffffffff167f8be0079c531659141344cd1fd0a4f28419497f9722a3daafe3b4186f6b6457e060405160405180910390a35050565b600b60009054906101000a900460ff1615620002d7576040517fb9f3e40400000000000000000000000000000000000000000000000000000000815260040160405180910390fd5b80600a906003620002ea9291906200039a565b506001600b60006101000a81548160ff02191690831515021790555050565b828054620003179062000960565b90600052602060002090601f0160209004810192826200033b576000855562000387565b82601f106200035657805160ff191683800117855562000387565b8280016001018555821562000387579182015b828111156200038657825182559160200191906001019062000369565b5b50905062000396919062000401565b5090565b828054828255906000526020600020908101928215620003ee579160200282015b82811115620003ed578251829080519060200190620003dc92919062000309565b5091602001919060010190620003bb565b5b509050620003fd919062000420565b5090565b5b808211156200041c57600081600090555060010162000402565b5090565b5b808211156200044457600081816200043a919062000448565b5060010162000421565b5090565b508054620004569062000960565b6000825580601f106200046a57506200048b565b601f0160209004906000526020600020908101906200048a919062000401565b5b50565b6000604051905090565b600080fd5b600080fd5b600073ffffffffffffffffffffffffffffffffffffffff82169050919050565b6000620004cf82620004a2565b9050919050565b620004e181620004c2565b8114620004ed57600080fd5b50565b6000815190506200050181620004d6565b92915050565b600067ffffffffffffffff82169050919050565b620005268162000507565b81146200053257600080fd5b50565b60008151905062000546816200051b565b92915050565b6000819050919050565b62000561816200054c565b81146200056d57600080fd5b50565b600081519050620005818162000556565b92915050565b600063ffffffff82169050919050565b620005a28162000587565b8114620005ae57600080fd5b50565b600081519050620005c28162000597565b92915050565b600080fd5b6000601f19601f8301169050919050565b7f4e487b7100000000000000000000000000000000000000000000000000000000600052604160045260246000fd5b6200061882620005cd565b810181811067ffffffffffffffff821117156200063a5762000639620005de565b5b80604052505050565b60006200064f6200048e565b90506200065d82826200060d565b919050565b600067ffffffffffffffff82111562000680576200067f620005de565b5b602082029050919050565b600080fd5b600080fd5b600067ffffffffffffffff821115620006b357620006b2620005de565b5b620006be82620005cd565b9050602081019050919050565b60005b83811015620006eb578082015181840152602081019050620006ce565b83811115620006fb576000848401525b50505050565b600062000718620007128462000695565b62000643565b90508281526020810184848401111562000737576200073662000690565b5b62000744848285620006cb565b509392505050565b600082601f830112620007645762000763620005c8565b5b81516200077684826020860162000701565b91505092915050565b600062000796620007908462000662565b62000643565b90508060208402830185811115620007b357620007b26200068b565b5b835b818110156200080157805167ffffffffffffffff811115620007dc57620007db620005c8565b5b808601620007eb89826200074c565b85526020850194505050602081019050620007b5565b5050509392505050565b600082601f830112620008235762000822620005c8565b5b6003620008328482856200077f565b91505092915050565b6000819050919050565b62000850816200083b565b81146200085c57600080fd5b50565b600081519050620008708162000845565b92915050565b60008060008060008060c0878903121562000896576200089562000498565b5b6000620008a689828a01620004f0565b9650506020620008b989828a0162000535565b9550506040620008cc89828a0162000570565b9450506060620008df89828a01620005b1565b935050608087015167ffffffffffffffff8111156200090357620009026200049d565b5b6200091189828a016200080b565b92505060a06200092489828a016200085f565b9150509295509295509295565b7f4e487b7100000000000000000000000000000000000000000000000000000000600052602260045260246000fd5b600060028204905060018216806200097957607f821691505b6020821081141562000990576200098f62000931565b5b50919050565b60805160a05160c05160e0516101005161012051613a4b620009fb60003960008181610eb50152610fe2015260006110bc015260008181610b2f0152611078015260006110990152600061103c015260008181610a0d0152610a610152613a4b6000f3fe60806040526004361061019c5760003560e01c80636e02007d116100ec578063a36f573b1161008a578063c87b56dd11610064578063c87b56dd146105bb578063e985e9c5146105f8578063ee89dab414610635578063f2fde38b146106605761019c565b8063a36f573b14610537578063aa15249114610574578063b88d4fde146105925761019c565b80637a5caab3116100c65780637a5caab31461048d5780638da5cb5b146104b857806395d89b41146104e3578063a22cb4651461050e5761019c565b80636e02007d1461040e57806370a0823114610439578063715018a6146104765761019c565b806323b872dd1161015957806342842e0e1161013357806342842e0e146103405780635dacf5f4146103695780636352211e146103945780636704df42146103d15761019c565b806323b872dd146102d5578063331bf125146102fe5780633ccfd60b146103295761019c565b806301ffc9a7146101a157806306fdde03146101de5780630719766514610209578063081812fc14610246578063095ea7b3146102835780631fe543e3146102ac575b600080fd5b3480156101ad57600080fd5b506101c860048036038101906101c391906125a3565b610689565b6040516101d591906125eb565b60405180910390f35b3480156101ea57600080fd5b506101f361076b565b604051610200919061269f565b60405180910390f35b34801561021557600080fd5b50610230600480360381019061022b91906126f7565b6107fd565b60405161023d919061269f565b60405180910390f35b34801561025257600080fd5b5061026d600480360381019061026891906126f7565b6108ad565b60405161027a9190612765565b60405180910390f35b34801561028f57600080fd5b506102aa60048036038101906102a591906127ac565b6108f3565b005b3480156102b857600080fd5b506102d360048036038101906102ce9190612934565b610a0b565b005b3480156102e157600080fd5b506102fc60048036038101906102f79190612990565b610acb565b005b34801561030a57600080fd5b50610313610b2b565b60405161032091906129fc565b60405180910390f35b34801561033557600080fd5b5061033e610b53565b005b34801561034c57600080fd5b5061036760048036038101906103629190612990565b610c07565b005b34801561037557600080fd5b5061037e610c27565b60405161038b9190612ac2565b60405180910390f35b3480156103a057600080fd5b506103bb60048036038101906103b691906126f7565b610c52565b6040516103c89190612765565b60405180910390f35b3480156103dd57600080fd5b506103f860048036038101906103f391906126f7565b610d04565b6040516104059190612b54565b60405180910390f35b34801561041a57600080fd5b50610423610ddb565b6040516104309190612b7e565b60405180910390f35b34801561044557600080fd5b50610460600480360381019061045b9190612b99565b610de5565b60405161046d9190612b7e565b60405180910390f35b34801561048257600080fd5b5061048b610e9d565b005b34801561049957600080fd5b506104a2610eb1565b6040516104af9190612b7e565b60405180910390f35b3480156104c457600080fd5b506104cd610ed9565b6040516104da9190612765565b60405180910390f35b3480156104ef57600080fd5b506104f8610f03565b604051610505919061269f565b60405180910390f35b34801561051a57600080fd5b5061053560048036038101906105309190612bf2565b610f95565b005b34801561054357600080fd5b5061055e600480360381019061055991906126f7565b610fab565b60405161056b9190612765565b60405180910390f35b61057c610fde565b6040516105899190612b7e565b60405180910390f35b34801561059e57600080fd5b506105b960048036038101906105b49190612ce7565b6111de565b005b3480156105c757600080fd5b506105e260048036038101906105dd91906126f7565b611240565b6040516105ef919061269f565b60405180910390f35b34801561060457600080fd5b5061061f600480360381019061061a9190612d6a565b611353565b60405161062c91906125eb565b60405180910390f35b34801561064157600080fd5b5061064a6113e7565b60405161065791906125eb565b60405180910390f35b34801561066c57600080fd5b5061068760048036038101906106829190612b99565b6113fe565b005b60007f80ac58cd000000000000000000000000000000000000000000000000000000007bffffffffffffffffffffffffffffffffffffffffffffffffffffffff1916827bffffffffffffffffffffffffffffffffffffffffffffffffffffffff1916148061075457507f5b5e139f000000000000000000000000000000000000000000000000000000007bffffffffffffffffffffffffffffffffffffffffffffffffffffffff1916827bffffffffffffffffffffffffffffffffffffffffffffffffffffffff1916145b80610764575061076382611482565b5b9050919050565b60606000805461077a90612dd9565b80601f01602080910402602001604051908101604052809291908181526020018280546107a690612dd9565b80156107f35780601f106107c8576101008083540402835291602001916107f3565b820191906000526020600020905b8154815290600101906020018083116107d657829003601f168201915b5050505050905090565b6060600a828154811061081357610812612e0b565b5b90600052602060002001805461082890612dd9565b80601f016020809104026020016040519081016040528092919081815260200182805461085490612dd9565b80156108a15780601f10610876576101008083540402835291602001916108a1565b820191906000526020600020905b81548152906001019060200180831161088457829003601f168201915b50505050509050919050565b60006108b8826114ec565b6004600083815260200190815260200160002060009054906101000a900473ffffffffffffffffffffffffffffffffffffffff169050919050565b60006108fe82610c52565b90508073ffffffffffffffffffffffffffffffffffffffff168373ffffffffffffffffffffffffffffffffffffffff16141561096f576040517f08c379a000000000000000000000000000000000000000000000000000000000815260040161096690612eac565b60405180910390fd5b8073ffffffffffffffffffffffffffffffffffffffff1661098e611537565b73ffffffffffffffffffffffffffffffffffffffff1614806109bd57506109bc816109b7611537565b611353565b5b6109fc576040517f08c379a00000000000000000000000000000000000000000000000000000000081526004016109f390612f3e565b60405180910390fd5b610a06838361153f565b505050565b7f000000000000000000000000000000000000000000000000000000000000000073ffffffffffffffffffffffffffffffffffffffff163373ffffffffffffffffffffffffffffffffffffffff1614610abd57337f00000000000000000000000000000000000000000000000000000000000000006040517f1cf993f4000000000000000000000000000000000000000000000000000000008152600401610ab4929190612f5e565b60405180910390fd5b610ac782826115f8565b5050565b610adc610ad6611537565b82611792565b610b1b576040517f08c379a0000000000000000000000000000000000000000000000000000000008152600401610b1290612ff9565b60405180910390fd5b610b26838383611827565b505050565b60007f0000000000000000000000000000000000000000000000000000000000000000905090565b610b5b611a8e565b600047905060003373ffffffffffffffffffffffffffffffffffffffff1682604051610b869061304a565b60006040518083038185875af1925050503d8060008114610bc3576040519150601f19603f3d011682016040523d82523d6000602084013e610bc8565b606091505b5050905080610c03576040517f44ee510c00000000000000000000000000000000000000000000000000000000815260040160405180910390fd5b5050565b610c22838383604051806020016040528060008152506111de565b505050565b610c2f612472565b6040518060600160405280600a8152602001601e81526020016064815250905090565b6000806002600084815260200190815260200160002060009054906101000a900473ffffffffffffffffffffffffffffffffffffffff169050600073ffffffffffffffffffffffffffffffffffffffff168173ffffffffffffffffffffffffffffffffffffffff161415610cfb576040517f08c379a0000000000000000000000000000000000000000000000000000000008152600401610cf2906130ab565b60405180910390fd5b80915050919050565b600080600090506000610d15610c27565b905060005b6003811015610da357828510158015610d495750818160038110610d4157610d40612e0b565b5b602002015185105b15610d6b57806002811115610d6157610d60612add565b5b9350505050610dd6565b818160038110610d7e57610d7d612e0b565b5b602002015183610d8e91906130fa565b92508080610d9b90613150565b915050610d1a565b506040517f77e1c4ca00000000000000000000000000000000000000000000000000000000815260040160405180910390fd5b919050565b6000600954905090565b60008073ffffffffffffffffffffffffffffffffffffffff168273ffffffffffffffffffffffffffffffffffffffff161415610e56576040517f08c379a0000000000000000000000000000000000000000000000000000000008152600401610e4d9061320b565b60405180910390fd5b600360008373ffffffffffffffffffffffffffffffffffffffff1673ffffffffffffffffffffffffffffffffffffffff168152602001908152602001600020549050919050565b610ea5611a8e565b610eaf6000611b0c565b565b60007f0000000000000000000000000000000000000000000000000000000000000000905090565b6000600760009054906101000a900473ffffffffffffffffffffffffffffffffffffffff16905090565b606060018054610f1290612dd9565b80601f0160208091040260200160405190810160405280929190818152602001828054610f3e90612dd9565b8015610f8b5780601f10610f6057610100808354040283529160200191610f8b565b820191906000526020600020905b815481529060010190602001808311610f6e57829003601f168201915b5050505050905090565b610fa7610fa0611537565b8383611bd2565b5050565b60086020528060005260406000206000915054906101000a900473ffffffffffffffffffffffffffffffffffffffff1681565b60007f000000000000000000000000000000000000000000000000000000000000000034101561103a576040517f052a15b600000000000000000000000000000000000000000000000000000000815260040160405180910390fd5b7f000000000000000000000000000000000000000000000000000000000000000073ffffffffffffffffffffffffffffffffffffffff16635d3b1d307f00000000000000000000000000000000000000000000000000000000000000007f000000000000000000000000000000000000000000000000000000000000000060037f000000000000000000000000000000000000000000000000000000000000000060016040518663ffffffff1660e01b81526004016110fd9594939291906132c5565b602060405180830381600087803b15801561111757600080fd5b505af115801561112b573d6000803e3d6000fd5b505050506040513d601f19601f8201168201806040525081019061114f919061332d565b9050336008600083815260200190815260200160002060006101000a81548173ffffffffffffffffffffffffffffffffffffffff021916908373ffffffffffffffffffffffffffffffffffffffff160217905550807f4e1c2f1eae56e29ec039a2b882eec626e6c420ed5a5b93a203c8b8b695e911b1336040516111d39190612765565b60405180910390a290565b6111ef6111e9611537565b83611792565b61122e576040517f08c379a000000000000000000000000000000000000000000000000000000000815260040161122590612ff9565b60405180910390fd5b61123a84848484611d3f565b50505050565b606061124b826114ec565b600060066000848152602001908152602001600020805461126b90612dd9565b80601f016020809104026020016040519081016040528092919081815260200182805461129790612dd9565b80156112e45780601f106112b9576101008083540402835291602001916112e4565b820191906000526020600020905b8154815290600101906020018083116112c757829003601f168201915b5050505050905060006112f5611d9b565b905060008151141561130b57819250505061134e565b600082511115611340578082604051602001611328929190613396565b6040516020818303038152906040529250505061134e565b61134984611db2565b925050505b919050565b6000600560008473ffffffffffffffffffffffffffffffffffffffff1673ffffffffffffffffffffffffffffffffffffffff16815260200190815260200160002060008373ffffffffffffffffffffffffffffffffffffffff1673ffffffffffffffffffffffffffffffffffffffff16815260200190815260200160002060009054906101000a900460ff16905092915050565b6000600b60009054906101000a900460ff16905090565b611406611a8e565b600073ffffffffffffffffffffffffffffffffffffffff168173ffffffffffffffffffffffffffffffffffffffff161415611476576040517f08c379a000000000000000000000000000000000000000000000000000000000815260040161146d9061342c565b60405180910390fd5b61147f81611b0c565b50565b60007f01ffc9a7000000000000000000000000000000000000000000000000000000007bffffffffffffffffffffffffffffffffffffffffffffffffffffffff1916827bffffffffffffffffffffffffffffffffffffffffffffffffffffffff1916149050919050565b6114f581611e1a565b611534576040517f08c379a000000000000000000000000000000000000000000000000000000000815260040161152b906130ab565b60405180910390fd5b50565b600033905090565b816004600083815260200190815260200160002060006101000a81548173ffffffffffffffffffffffffffffffffffffffff021916908373ffffffffffffffffffffffffffffffffffffffff160217905550808273ffffffffffffffffffffffffffffffffffffffff166115b283610c52565b73ffffffffffffffffffffffffffffffffffffffff167f8c5be1e5ebec7d5bd14f71427d1e84f3dd0314c0f7b2291e5b200ac8c7c3b92560405160405180910390a45050565b60006008600084815260200190815260200160002060009054906101000a900473ffffffffffffffffffffffffffffffffffffffff16905060006009549050600160095461164691906130fa565b600981905550600060648460008151811061166457611663612e0b565b5b6020026020010151611676919061347b565b9050600061168382610d04565b905061168f8484611e86565b61175183600a8360028111156116a8576116a7612add565b5b815481106116b9576116b8612e0b565b5b9060005260206000200180546116ce90612dd9565b80601f01602080910402602001604051908101604052809291908181526020018280546116fa90612dd9565b80156117475780601f1061171c57610100808354040283529160200191611747565b820191906000526020600020905b81548152906001019060200180831161172a57829003601f168201915b5050505050611ea4565b7fab79897476febbd649710b1bd1dc3e93a316d3dee65f65b022ab89a4b7e206b581856040516117829291906134ac565b60405180910390a1505050505050565b60008061179e83610c52565b90508073ffffffffffffffffffffffffffffffffffffffff168473ffffffffffffffffffffffffffffffffffffffff1614806117e057506117df8185611353565b5b8061181e57508373ffffffffffffffffffffffffffffffffffffffff16611806846108ad565b73ffffffffffffffffffffffffffffffffffffffff16145b91505092915050565b8273ffffffffffffffffffffffffffffffffffffffff1661184782610c52565b73ffffffffffffffffffffffffffffffffffffffff161461189d576040517f08c379a000000000000000000000000000000000000000000000000000000000815260040161189490613547565b60405180910390fd5b600073ffffffffffffffffffffffffffffffffffffffff168273ffffffffffffffffffffffffffffffffffffffff16141561190d576040517f08c379a0000000000000000000000000000000000000000000000000000000008152600401611904906135d9565b60405180910390fd5b611918838383611f18565b61192360008261153f565b6001600360008573ffffffffffffffffffffffffffffffffffffffff1673ffffffffffffffffffffffffffffffffffffffff168152602001908152602001600020600082825461197391906135f9565b925050819055506001600360008473ffffffffffffffffffffffffffffffffffffffff1673ffffffffffffffffffffffffffffffffffffffff16815260200190815260200160002060008282546119ca91906130fa565b92505081905550816002600083815260200190815260200160002060006101000a81548173ffffffffffffffffffffffffffffffffffffffff021916908373ffffffffffffffffffffffffffffffffffffffff160217905550808273ffffffffffffffffffffffffffffffffffffffff168473ffffffffffffffffffffffffffffffffffffffff167fddf252ad1be2c89b69c2b068fc378daa952ba7f163c4a11628f55a4df523b3ef60405160405180910390a4611a89838383611f1d565b505050565b611a96611537565b73ffffffffffffffffffffffffffffffffffffffff16611ab4610ed9565b73ffffffffffffffffffffffffffffffffffffffff1614611b0a576040517f08c379a0000000000000000000000000000000000000000000000000000000008152600401611b0190613679565b60405180910390fd5b565b6000600760009054906101000a900473ffffffffffffffffffffffffffffffffffffffff16905081600760006101000a81548173ffffffffffffffffffffffffffffffffffffffff021916908373ffffffffffffffffffffffffffffffffffffffff1602179055508173ffffffffffffffffffffffffffffffffffffffff168173ffffffffffffffffffffffffffffffffffffffff167f8be0079c531659141344cd1fd0a4f28419497f9722a3daafe3b4186f6b6457e060405160405180910390a35050565b8173ffffffffffffffffffffffffffffffffffffffff168373ffffffffffffffffffffffffffffffffffffffff161415611c41576040517f08c379a0000000000000000000000000000000000000000000000000000000008152600401611c38906136e5565b60405180910390fd5b80600560008573ffffffffffffffffffffffffffffffffffffffff1673ffffffffffffffffffffffffffffffffffffffff16815260200190815260200160002060008473ffffffffffffffffffffffffffffffffffffffff1673ffffffffffffffffffffffffffffffffffffffff16815260200190815260200160002060006101000a81548160ff0219169083151502179055508173ffffffffffffffffffffffffffffffffffffffff168373ffffffffffffffffffffffffffffffffffffffff167f17307eab39ab6107e8899845ad3d59bd9653f200f220920489ca2b5937696c3183604051611d3291906125eb565b60405180910390a3505050565b611d4a848484611827565b611d5684848484611f22565b611d95576040517f08c379a0000000000000000000000000000000000000000000000000000000008152600401611d8c90613777565b60405180910390fd5b50505050565b606060405180602001604052806000815250905090565b6060611dbd826114ec565b6000611dc7611d9b565b90506000815111611de75760405180602001604052806000815250611e12565b80611df1846120b9565b604051602001611e02929190613396565b6040516020818303038152906040525b915050919050565b60008073ffffffffffffffffffffffffffffffffffffffff166002600084815260200190815260200160002060009054906101000a900473ffffffffffffffffffffffffffffffffffffffff1673ffffffffffffffffffffffffffffffffffffffff1614159050919050565b611ea082826040518060200160405280600081525061221a565b5050565b611ead82611e1a565b611eec576040517f08c379a0000000000000000000000000000000000000000000000000000000008152600401611ee390613809565b60405180910390fd5b80600660008481526020019081526020016000209080519060200190611f13929190612494565b505050565b505050565b505050565b6000611f438473ffffffffffffffffffffffffffffffffffffffff16612275565b156120ac578373ffffffffffffffffffffffffffffffffffffffff1663150b7a02611f6c611537565b8786866040518563ffffffff1660e01b8152600401611f8e949392919061387e565b602060405180830381600087803b158015611fa857600080fd5b505af1925050508015611fd957506040513d601f19601f82011682018060405250810190611fd691906138df565b60015b61205c573d8060008114612009576040519150601f19603f3d011682016040523d82523d6000602084013e61200e565b606091505b50600081511415612054576040517f08c379a000000000000000000000000000000000000000000000000000000000815260040161204b90613777565b60405180910390fd5b805181602001fd5b63150b7a0260e01b7bffffffffffffffffffffffffffffffffffffffffffffffffffffffff1916817bffffffffffffffffffffffffffffffffffffffffffffffffffffffff1916149150506120b1565b600190505b949350505050565b60606000821415612101576040518060400160405280600181526020017f30000000000000000000000000000000000000000000000000000000000000008152509050612215565b600082905060005b6000821461213357808061211c90613150565b915050600a8261212c919061390c565b9150612109565b60008167ffffffffffffffff81111561214f5761214e6127f1565b5b6040519080825280601f01601f1916602001820160405280156121815781602001600182028036833780820191505090505b5090505b6000851461220e5760018261219a91906135f9565b9150600a856121a9919061347b565b60306121b591906130fa565b60f81b8183815181106121cb576121ca612e0b565b5b60200101907effffffffffffffffffffffffffffffffffffffffffffffffffffffffffffff1916908160001a905350600a85612207919061390c565b9450612185565b8093505050505b919050565b6122248383612298565b6122316000848484611f22565b612270576040517f08c379a000000000000000000000000000000000000000000000000000000000815260040161226790613777565b60405180910390fd5b505050565b6000808273ffffffffffffffffffffffffffffffffffffffff163b119050919050565b600073ffffffffffffffffffffffffffffffffffffffff168273ffffffffffffffffffffffffffffffffffffffff161415612308576040517f08c379a00000000000000000000000000000000000000000000000000000000081526004016122ff90613989565b60405180910390fd5b61231181611e1a565b15612351576040517f08c379a0000000000000000000000000000000000000000000000000000000008152600401612348906139f5565b60405180910390fd5b61235d60008383611f18565b6001600360008473ffffffffffffffffffffffffffffffffffffffff1673ffffffffffffffffffffffffffffffffffffffff16815260200190815260200160002060008282546123ad91906130fa565b92505081905550816002600083815260200190815260200160002060006101000a81548173ffffffffffffffffffffffffffffffffffffffff021916908373ffffffffffffffffffffffffffffffffffffffff160217905550808273ffffffffffffffffffffffffffffffffffffffff16600073ffffffffffffffffffffffffffffffffffffffff167fddf252ad1be2c89b69c2b068fc378daa952ba7f163c4a11628f55a4df523b3ef60405160405180910390a461246e60008383611f1d565b5050565b6040518060600160405280600390602082028036833780820191505090505090565b8280546124a090612dd9565b90600052602060002090601f0160209004810192826124c25760008555612509565b82601f106124db57805160ff1916838001178555612509565b82800160010185558215612509579182015b828111156125085782518255916020019190600101906124ed565b5b509050612516919061251a565b5090565b5b8082111561253357600081600090555060010161251b565b5090565b6000604051905090565b600080fd5b600080fd5b60007fffffffff0000000000000000000000000000000000000000000000000000000082169050919050565b6125808161254b565b811461258b57600080fd5b50565b60008135905061259d81612577565b92915050565b6000602082840312156125b9576125b8612541565b5b60006125c78482850161258e565b91505092915050565b60008115159050919050565b6125e5816125d0565b82525050565b600060208201905061260060008301846125dc565b92915050565b600081519050919050565b600082825260208201905092915050565b60005b83811015612640578082015181840152602081019050612625565b8381111561264f576000848401525b50505050565b6000601f19601f8301169050919050565b600061267182612606565b61267b8185612611565b935061268b818560208601612622565b61269481612655565b840191505092915050565b600060208201905081810360008301526126b98184612666565b905092915050565b6000819050919050565b6126d4816126c1565b81146126df57600080fd5b50565b6000813590506126f1816126cb565b92915050565b60006020828403121561270d5761270c612541565b5b600061271b848285016126e2565b91505092915050565b600073ffffffffffffffffffffffffffffffffffffffff82169050919050565b600061274f82612724565b9050919050565b61275f81612744565b82525050565b600060208201905061277a6000830184612756565b92915050565b61278981612744565b811461279457600080fd5b50565b6000813590506127a681612780565b92915050565b600080604083850312156127c3576127c2612541565b5b60006127d185828601612797565b92505060206127e2858286016126e2565b9150509250929050565b600080fd5b7f4e487b7100000000000000000000000000000000000000000000000000000000600052604160045260246000fd5b61282982612655565b810181811067ffffffffffffffff82111715612848576128476127f1565b5b80604052505050565b600061285b612537565b90506128678282612820565b919050565b600067ffffffffffffffff821115612887576128866127f1565b5b602082029050602081019050919050565b600080fd5b60006128b06128ab8461286c565b612851565b905080838252602082019050602084028301858111156128d3576128d2612898565b5b835b818110156128fc57806128e888826126e2565b8452602084019350506020810190506128d5565b5050509392505050565b600082601f83011261291b5761291a6127ec565b5b813561292b84826020860161289d565b91505092915050565b6000806040838503121561294b5761294a612541565b5b6000612959858286016126e2565b925050602083013567ffffffffffffffff81111561297a57612979612546565b5b61298685828601612906565b9150509250929050565b6000806000606084860312156129a9576129a8612541565b5b60006129b786828701612797565b93505060206129c886828701612797565b92505060406129d9868287016126e2565b9150509250925092565b6000819050919050565b6129f6816129e3565b82525050565b6000602082019050612a1160008301846129ed565b92915050565b600060039050919050565b600081905092915050565b6000819050919050565b612a40816126c1565b82525050565b6000612a528383612a37565b60208301905092915050565b6000602082019050919050565b612a7481612a17565b612a7e8184612a22565b9250612a8982612a2d565b8060005b83811015612aba578151612aa18782612a46565b9650612aac83612a5e565b925050600181019050612a8d565b505050505050565b6000606082019050612ad76000830184612a6b565b92915050565b7f4e487b7100000000000000000000000000000000000000000000000000000000600052602160045260246000fd5b60038110612b1d57612b1c612add565b5b50565b6000819050612b2e82612b0c565b919050565b6000612b3e82612b20565b9050919050565b612b4e81612b33565b82525050565b6000602082019050612b696000830184612b45565b92915050565b612b78816126c1565b82525050565b6000602082019050612b936000830184612b6f565b92915050565b600060208284031215612baf57612bae612541565b5b6000612bbd84828501612797565b91505092915050565b612bcf816125d0565b8114612bda57600080fd5b50565b600081359050612bec81612bc6565b92915050565b60008060408385031215612c0957612c08612541565b5b6000612c1785828601612797565b9250506020612c2885828601612bdd565b9150509250929050565b600080fd5b600067ffffffffffffffff821115612c5257612c516127f1565b5b612c5b82612655565b9050602081019050919050565b82818337600083830152505050565b6000612c8a612c8584612c37565b612851565b905082815260208101848484011115612ca657612ca5612c32565b5b612cb1848285612c68565b509392505050565b600082601f830112612cce57612ccd6127ec565b5b8135612cde848260208601612c77565b91505092915050565b60008060008060808587031215612d0157612d00612541565b5b6000612d0f87828801612797565b9450506020612d2087828801612797565b9350506040612d31878288016126e2565b925050606085013567ffffffffffffffff811115612d5257612d51612546565b5b612d5e87828801612cb9565b91505092959194509250565b60008060408385031215612d8157612d80612541565b5b6000612d8f85828601612797565b9250506020612da085828601612797565b9150509250929050565b7f4e487b7100000000000000000000000000000000000000000000000000000000600052602260045260246000fd5b60006002820490506001821680612df157607f821691505b60208210811415612e0557612e04612daa565b5b50919050565b7f4e487b7100000000000000000000000000000000000000000000000000000000600052603260045260246000fd5b7f4552433732313a20617070726f76616c20746f2063757272656e74206f776e6560008201527f7200000000000000000000000000000000000000000000000000000000000000602082015250565b6000612e96602183612611565b9150612ea182612e3a565b604082019050919050565b60006020820190508181036000830152612ec581612e89565b9050919050565b7f4552433732313a20617070726f76652063616c6c6572206973206e6f7420746f60008201527f6b656e206f776e6572206e6f7220617070726f76656420666f7220616c6c0000602082015250565b6000612f28603e83612611565b9150612f3382612ecc565b604082019050919050565b60006020820190508181036000830152612f5781612f1b565b9050919050565b6000604082019050612f736000830185612756565b612f806020830184612756565b9392505050565b7f4552433732313a2063616c6c6572206973206e6f7420746f6b656e206f776e6560008201527f72206e6f7220617070726f766564000000000000000000000000000000000000602082015250565b6000612fe3602e83612611565b9150612fee82612f87565b604082019050919050565b6000602082019050818103600083015261301281612fd6565b9050919050565b600081905092915050565b50565b6000613034600083613019565b915061303f82613024565b600082019050919050565b600061305582613027565b9150819050919050565b7f4552433732313a20696e76616c696420746f6b656e2049440000000000000000600082015250565b6000613095601883612611565b91506130a08261305f565b602082019050919050565b600060208201905081810360008301526130c481613088565b9050919050565b7f4e487b7100000000000000000000000000000000000000000000000000000000600052601160045260246000fd5b6000613105826126c1565b9150613110836126c1565b9250827fffffffffffffffffffffffffffffffffffffffffffffffffffffffffffffffff03821115613145576131446130cb565b5b828201905092915050565b600061315b826126c1565b91507fffffffffffffffffffffffffffffffffffffffffffffffffffffffffffffffff82141561318e5761318d6130cb565b5b600182019050919050565b7f4552433732313a2061646472657373207a65726f206973206e6f74206120766160008201527f6c6964206f776e65720000000000000000000000000000000000000000000000602082015250565b60006131f5602983612611565b915061320082613199565b604082019050919050565b60006020820190508181036000830152613224816131e8565b9050919050565b600067ffffffffffffffff82169050919050565b6132488161322b565b82525050565b600061ffff82169050919050565b6132658161324e565b82525050565b600063ffffffff82169050919050565b6132848161326b565b82525050565b6000819050919050565b60006132af6132aa6132a58461324e565b61328a565b61326b565b9050919050565b6132bf81613294565b82525050565b600060a0820190506132da60008301886129ed565b6132e7602083018761323f565b6132f4604083018661325c565b613301606083018561327b565b61330e60808301846132b6565b9695505050505050565b600081519050613327816126cb565b92915050565b60006020828403121561334357613342612541565b5b600061335184828501613318565b91505092915050565b600081905092915050565b600061337082612606565b61337a818561335a565b935061338a818560208601612622565b80840191505092915050565b60006133a28285613365565b91506133ae8284613365565b91508190509392505050565b7f4f776e61626c653a206e6577206f776e657220697320746865207a65726f206160008201527f6464726573730000000000000000000000000000000000000000000000000000602082015250565b6000613416602683612611565b9150613421826133ba565b604082019050919050565b6000602082019050818103600083015261344581613409565b9050919050565b7f4e487b7100000000000000000000000000000000000000000000000000000000600052601260045260246000fd5b6000613486826126c1565b9150613491836126c1565b9250826134a1576134a061344c565b5b828206905092915050565b60006040820190506134c16000830185612b45565b6134ce6020830184612756565b9392505050565b7f4552433732313a207472616e736665722066726f6d20696e636f72726563742060008201527f6f776e6572000000000000000000000000000000000000000000000000000000602082015250565b6000613531602583612611565b915061353c826134d5565b604082019050919050565b6000602082019050818103600083015261356081613524565b9050919050565b7f4552433732313a207472616e7366657220746f20746865207a65726f2061646460008201527f7265737300000000000000000000000000000000000000000000000000000000602082015250565b60006135c3602483612611565b91506135ce82613567565b604082019050919050565b600060208201905081810360008301526135f2816135b6565b9050919050565b6000613604826126c1565b915061360f836126c1565b925082821015613622576136216130cb565b5b828203905092915050565b7f4f776e61626c653a2063616c6c6572206973206e6f7420746865206f776e6572600082015250565b6000613663602083612611565b915061366e8261362d565b602082019050919050565b6000602082019050818103600083015261369281613656565b9050919050565b7f4552433732313a20617070726f766520746f2063616c6c657200000000000000600082015250565b60006136cf601983612611565b91506136da82613699565b602082019050919050565b600060208201905081810360008301526136fe816136c2565b9050919050565b7f4552433732313a207472616e7366657220746f206e6f6e20455243373231526560008201527f63656976657220696d706c656d656e7465720000000000000000000000000000602082015250565b6000613761603283612611565b915061376c82613705565b604082019050919050565b6000602082019050818103600083015261379081613754565b9050919050565b7f45524337323155524953746f726167653a2055524920736574206f66206e6f6e60008201527f6578697374656e7420746f6b656e000000000000000000000000000000000000602082015250565b60006137f3602e83612611565b91506137fe82613797565b604082019050919050565b60006020820190508181036000830152613822816137e6565b9050919050565b600081519050919050565b600082825260208201905092915050565b600061385082613829565b61385a8185613834565b935061386a818560208601612622565b61387381612655565b840191505092915050565b60006080820190506138936000830187612756565b6138a06020830186612756565b6138ad6040830185612b6f565b81810360608301526138bf8184613845565b905095945050505050565b6000815190506138d981612577565b92915050565b6000602082840312156138f5576138f4612541565b5b6000613903848285016138ca565b91505092915050565b6000613917826126c1565b9150613922836126c1565b9250826139325761393161344c565b5b828204905092915050565b7f4552433732313a206d696e7420746f20746865207a65726f2061646472657373600082015250565b6000613973602083612611565b915061397e8261393d565b602082019050919050565b600060208201905081810360008301526139a281613966565b9050919050565b7f4552433732313a20746f6b656e20616c7265616479206d696e74656400000000600082015250565b60006139df601c83612611565b91506139ea826139a9565b602082019050919050565b60006020820190508181036000830152613a0e816139d2565b905091905056fea264697066735822122005f3c288091d105196a7eacba73d650065d50665049988d4270149698fce01ec64736f6c63430008090033",
  "devdoc": {
    "kind": "dev",
    "methods": {
      "approve(address,uint256)": {
        "details": "See {IERC721-approve}."
      },
      "balanceOf(address)": {
        "details": "See {IERC721-balanceOf}."
      },
      "getApproved(uint256)": {
        "details": "See {IERC721-getApproved}."
      },
      "isApprovedForAll(address,address)": {
        "details": "See {IERC721-isApprovedForAll}."
      },
      "name()": {
        "details": "See {IERC721Metadata-name}."
      },
      "owner()": {
        "details": "Returns the address of the current owner."
      },
      "ownerOf(uint256)": {
        "details": "See {IERC721-ownerOf}."
      },
      "renounceOwnership()": {
        "details": "Leaves the contract without owner. It will not be possible to call `onlyOwner` functions anymore. Can only be called by the current owner. NOTE: Renouncing ownership will leave the contract without an owner, thereby removing any functionality that is only available to the owner."
      },
      "safeTransferFrom(address,address,uint256)": {
        "details": "See {IERC721-safeTransferFrom}."
      },
      "safeTransferFrom(address,address,uint256,bytes)": {
        "details": "See {IERC721-safeTransferFrom}."
      },
      "setApprovalForAll(address,bool)": {
        "details": "See {IERC721-setApprovalForAll}."
      },
      "supportsInterface(bytes4)": {
        "details": "See {IERC165-supportsInterface}."
      },
      "symbol()": {
        "details": "See {IERC721Metadata-symbol}."
      },
      "tokenURI(uint256)": {
        "details": "See {IERC721Metadata-tokenURI}."
      },
      "transferFrom(address,address,uint256)": {
        "details": "See {IERC721-transferFrom}."
      },
      "transferOwnership(address)": {
        "details": "Transfers ownership of the contract to a new account (`newOwner`). Can only be called by the current owner."
      }
    },
    "version": 1
  },
  "userdoc": {
    "kind": "user",
    "methods": {},
    "version": 1
  },
  "storageLayout": {
    "storage": [
      {
        "astId": 1005,
        "contract": "contracts/RandomIpfsNFT.sol:RandomIpfsNFT",
        "label": "_name",
        "offset": 0,
        "slot": "0",
        "type": "t_string_storage"
      },
      {
        "astId": 1007,
        "contract": "contracts/RandomIpfsNFT.sol:RandomIpfsNFT",
        "label": "_symbol",
        "offset": 0,
        "slot": "1",
        "type": "t_string_storage"
      },
      {
        "astId": 1011,
        "contract": "contracts/RandomIpfsNFT.sol:RandomIpfsNFT",
        "label": "_owners",
        "offset": 0,
        "slot": "2",
        "type": "t_mapping(t_uint256,t_address)"
      },
      {
        "astId": 1015,
        "contract": "contracts/RandomIpfsNFT.sol:RandomIpfsNFT",
        "label": "_balances",
        "offset": 0,
        "slot": "3",
        "type": "t_mapping(t_address,t_uint256)"
      },
      {
        "astId": 1019,
        "contract": "contracts/RandomIpfsNFT.sol:RandomIpfsNFT",
        "label": "_tokenApprovals",
        "offset": 0,
        "slot": "4",
        "type": "t_mapping(t_uint256,t_address)"
      },
      {
        "astId": 1025,
        "contract": "contracts/RandomIpfsNFT.sol:RandomIpfsNFT",
        "label": "_operatorApprovals",
        "offset": 0,
        "slot": "5",
        "type": "t_mapping(t_address,t_mapping(t_address,t_bool))"
      },
      {
        "astId": 1993,
        "contract": "contracts/RandomIpfsNFT.sol:RandomIpfsNFT",
        "label": "_tokenURIs",
        "offset": 0,
        "slot": "6",
        "type": "t_mapping(t_uint256,t_string_storage)"
      },
      {
        "astId": 874,
        "contract": "contracts/RandomIpfsNFT.sol:RandomIpfsNFT",
        "label": "_owner",
        "offset": 0,
        "slot": "7",
        "type": "t_address"
      },
      {
        "astId": 3066,
        "contract": "contracts/RandomIpfsNFT.sol:RandomIpfsNFT",
        "label": "s_requestIdToSender",
        "offset": 0,
        "slot": "8",
        "type": "t_mapping(t_uint256,t_address)"
      },
      {
        "astId": 3068,
        "contract": "contracts/RandomIpfsNFT.sol:RandomIpfsNFT",
        "label": "s_tokenCounter",
        "offset": 0,
        "slot": "9",
        "type": "t_uint256"
      },
      {
        "astId": 3074,
        "contract": "contracts/RandomIpfsNFT.sol:RandomIpfsNFT",
        "label": "s_NFTTokenURI",
        "offset": 0,
        "slot": "10",
        "type": "t_array(t_string_storage)dyn_storage"
      },
      {
        "astId": 3078,
        "contract": "contracts/RandomIpfsNFT.sol:RandomIpfsNFT",
        "label": "s_initialized",
        "offset": 0,
        "slot": "11",
        "type": "t_bool"
      }
    ],
    "types": {
      "t_address": {
        "encoding": "inplace",
        "label": "address",
        "numberOfBytes": "20"
      },
      "t_array(t_string_storage)dyn_storage": {
        "base": "t_string_storage",
        "encoding": "dynamic_array",
        "label": "string[]",
        "numberOfBytes": "32"
      },
      "t_bool": {
        "encoding": "inplace",
        "label": "bool",
        "numberOfBytes": "1"
      },
      "t_mapping(t_address,t_bool)": {
        "encoding": "mapping",
        "key": "t_address",
        "label": "mapping(address => bool)",
        "numberOfBytes": "32",
        "value": "t_bool"
      },
      "t_mapping(t_address,t_mapping(t_address,t_bool))": {
        "encoding": "mapping",
        "key": "t_address",
        "label": "mapping(address => mapping(address => bool))",
        "numberOfBytes": "32",
        "value": "t_mapping(t_address,t_bool)"
      },
      "t_mapping(t_address,t_uint256)": {
        "encoding": "mapping",
        "key": "t_address",
        "label": "mapping(address => uint256)",
        "numberOfBytes": "32",
        "value": "t_uint256"
      },
      "t_mapping(t_uint256,t_address)": {
        "encoding": "mapping",
        "key": "t_uint256",
        "label": "mapping(uint256 => address)",
        "numberOfBytes": "32",
        "value": "t_address"
      },
      "t_mapping(t_uint256,t_string_storage)": {
        "encoding": "mapping",
        "key": "t_uint256",
        "label": "mapping(uint256 => string)",
        "numberOfBytes": "32",
        "value": "t_string_storage"
      },
      "t_string_storage": {
        "encoding": "bytes",
        "label": "string",
        "numberOfBytes": "32"
      },
      "t_uint256": {
        "encoding": "inplace",
        "label": "uint256",
        "numberOfBytes": "32"
      }
    }
  }
}